{"abi":[{"type":"constructor","inputs":[{"name":"_subscriptionManager","type":"address","internalType":"address"}],"stateMutability":"nonpayable"},{"type":"function","name":"addSkill","inputs":[{"name":"id","type":"uint256","internalType":"uint256"},{"name":"name","type":"string","internalType":"string"},{"name":"minTier","type":"uint8","internalType":"uint8"}],"outputs":[],"stateMutability":"nonpayable"},{"type":"function","name":"hasSkill","inputs":[{"name":"user","type":"address","internalType":"address"},{"name":"skillId","type":"uint256","internalType":"uint256"}],"outputs":[{"name":"","type":"bool","internalType":"bool"}],"stateMutability":"view"},{"type":"function","name":"owner","inputs":[],"outputs":[{"name":"","type":"address","internalType":"address"}],"stateMutability":"view"},{"type":"function","name":"renounceOwnership","inputs":[],"outputs":[],"stateMutability":"nonpayable"},{"type":"function","name":"skills","inputs":[{"name":"","type":"uint256","internalType":"uint256"}],"outputs":[{"name":"name","type":"string","internalType":"string"},{"name":"minTier","type":"uint8","internalType":"uint8"},{"name":"active","type":"bool","internalType":"bool"}],"stateMutability":"view"},{"type":"function","name":"subscriptionManager","inputs":[],"outputs":[{"name":"","type":"address","internalType":"contract SubscriptionManager"}],"stateMutability":"view"},{"type":"function","name":"transferOwnership","inputs":[{"name":"newOwner","type":"address","internalType":"address"}],"outputs":[],"stateMutability":"nonpayable"},{"type":"function","name":"unlockSkill","inputs":[{"name":"skillId","type":"uint256","internalType":"uint256"}],"outputs":[],"stateMutability":"nonpayable"},{"type":"function","name":"unlockedSkills","inputs":[{"name":"","type":"address","internalType":"address"},{"name":"","type":"uint256","internalType":"uint256"}],"outputs":[{"name":"","type":"bool","internalType":"bool"}],"stateMutability":"view"},{"type":"event","name":"OwnershipTransferred","inputs":[{"name":"previousOwner","type":"address","indexed":true,"internalType":"address"},{"name":"newOwner","type":"address","indexed":true,"internalType":"address"}],"anonymous":false},{"type":"event","name":"SkillAdded","inputs":[{"name":"id","type":"uint256","indexed":true,"internalType":"uint256"},{"name":"name","type":"string","indexed":false,"internalType":"string"},{"name":"minTier","type":"uint8","indexed":false,"internalType":"uint8"}],"anonymous":false},{"type":"event","name":"SkillUnlocked","inputs":[{"name":"user","type":"address","indexed":true,"internalType":"address"},{"name":"skillId","type":"uint256","indexed":true,"internalType":"uint256"}],"anonymous":false},{"type":"error","name":"InvalidSkill","inputs":[]},{"type":"error","name":"NotSubscribed","inputs":[]},{"type":"error","name":"OwnableInvalidOwner","inputs":[{"name":"owner","type":"address","internalType":"address"}]},{"type":"error","name":"OwnableUnauthorizedAccount","inputs":[{"name":"account","type":"address","internalType":"address"}]},{"type":"error","name":"SkillAlreadyUnlocked","inputs":[]},{"type":"error","name":"TierTooLow","inputs":[]}],"bytecode":{"object":"0x608060405234801561000f575f5ffd5b50604051611b53380380611b5383398181016040528101906100319190610447565b335f73ffffffffffffffffffffffffffffffffffffffff168173ffffffffffffffffffffffffffffffffffffffff16036100a2575f6040517f1e4fbdf70000000000000000000000000000000000000000000000000000000081526004016100999190610481565b60405180910390fd5b6100b18161026060201b60201c565b508060015f6101000a81548173ffffffffffffffffffffffffffffffffffffffff021916908373ffffffffffffffffffffffffffffffffffffffff16021790555061013a60016040518060400160405280601381526020017f41617665205634206c656e642f626f72726f7700000000000000000000000000815250600161032160201b60201c565b61018260026040518060400160405280600d81526020017f556e6973776170205634204c5000000000000000000000000000000000000000815250600261032160201b60201c565b6101ca60036040518060400160405280601181526020017f474d582056322070657270657475616c73000000000000000000000000000000815250600261032160201b60201c565b61021260046040518060400160405280601481526020017f50656e646c65207969656c642074726164696e67000000000000000000000000815250600361032160201b60201c565b61025a60056040518060400160405280601a81526020017f4d756c74692d737472617465677920726562616c616e63696e67000000000000815250600361032160201b60201c565b50610866565b5f5f5f9054906101000a900473ffffffffffffffffffffffffffffffffffffffff169050815f5f6101000a81548173ffffffffffffffffffffffffffffffffffffffff021916908373ffffffffffffffffffffffffffffffffffffffff1602179055508173ffffffffffffffffffffffffffffffffffffffff168173ffffffffffffffffffffffffffffffffffffffff167f8be0079c531659141344cd1fd0a4f28419497f9722a3daafe3b4186f6b6457e060405160405180910390a35050565b60405180606001604052808381526020018260ff1681526020016001151581525060025f8581526020019081526020015f205f820151815f01908161036691906106e8565b506020820151816001015f6101000a81548160ff021916908360ff16021790555060408201518160010160016101000a81548160ff021916908315150217905550905050827f330c6028a3fd88684b1b1b4ca026b5951484283d2451a4c2fa2e8c75b6abf4fd83836040516103dc929190610838565b60405180910390a2505050565b5f5ffd5b5f73ffffffffffffffffffffffffffffffffffffffff82169050919050565b5f610416826103ed565b9050919050565b6104268161040c565b8114610430575f5ffd5b50565b5f815190506104418161041d565b92915050565b5f6020828403121561045c5761045b6103e9565b5b5f61046984828501610433565b91505092915050565b61047b8161040c565b82525050565b5f6020820190506104945f830184610472565b92915050565b5f81519050919050565b7f4e487b71000000000000000000000000000000000000000000000000000000005f52604160045260245ffd5b7f4e487b71000000000000000000000000000000000000000000000000000000005f52602260045260245ffd5b5f600282049050600182168061051557607f821691505b602082108103610528576105276104d1565b5b50919050565b5f819050815f5260205f209050919050565b5f6020601f8301049050919050565b5f82821b905092915050565b5f6008830261058a7fffffffffffffffffffffffffffffffffffffffffffffffffffffffffffffffff8261054f565b610594868361054f565b95508019841693508086168417925050509392505050565b5f819050919050565b5f819050919050565b5f6105d86105d36105ce846105ac565b6105b5565b6105ac565b9050919050565b5f819050919050565b6105f1836105be565b6106056105fd826105df565b84845461055b565b825550505050565b5f5f905090565b61061c61060d565b6106278184846105e8565b505050565b5f5b8281101561064d576106425f828401610614565b60018101905061062e565b505050565b601f8211156106a0578282111561069f5761066c8161052e565b61067583610540565b61067e85610540565b602086101561068b575f90505b80830161069a8284038261062c565b505050505b5b505050565b5f82821c905092915050565b5f6106c05f19846008026106a5565b1980831691505092915050565b5f6106d883836106b1565b9150826002028217905092915050565b6106f18261049a565b67ffffffffffffffff81111561070a576107096104a4565b5b61071482546104fe565b61071f828285610652565b5f60209050601f831160018114610750575f841561073e578287015190505b61074885826106cd565b8655506107af565b601f19841661075e8661052e565b5f5b8281101561078557848901518255600182019150602085019450602081019050610760565b868310156107a2578489015161079e601f8916826106b1565b8355505b6001600288020188555050505b505050505050565b5f82825260208201905092915050565b8281835e5f83830152505050565b5f601f19601f8301169050919050565b5f6107ef8261049a565b6107f981856107b7565b93506108098185602086016107c7565b610812816107d5565b840191505092915050565b5f60ff82169050919050565b6108328161081d565b82525050565b5f6040820190508181035f83015261085081856107e5565b905061085f6020830184610829565b9392505050565b6112e0806108735f395ff3fe608060405234801561000f575f5ffd5b5060043610610091575f3560e01c80638da5cb5b116100645780638da5cb5b1461011d578063bf158fd21461013b578063c36492ec14610159578063f2fde38b14610189578063f93a80f1146101a557610091565b806350d15fbe146100955780635ce98cd8146100c75780636b213020146100e3578063715018a614610113575b5f5ffd5b6100af60048036038101906100aa9190610a6f565b6101c1565b6040516100be93929190610b3f565b60405180910390f35b6100e160048036038101906100dc9190610a6f565b610286565b005b6100fd60048036038101906100f89190610bd5565b6105ec565b60405161010a9190610c13565b60405180910390f35b61011b610616565b005b610125610629565b6040516101329190610c3b565b60405180910390f35b610143610650565b6040516101509190610caf565b60405180910390f35b610173600480360381019061016e9190610bd5565b610675565b6040516101809190610c13565b60405180910390f35b6101a3600480360381019061019e9190610cc8565b610778565b005b6101bf60048036038101906101ba9190610e49565b6107fc565b005b6002602052805f5260405f205f91509050805f0180546101e090610ee2565b80601f016020809104026020016040519081016040528092919081815260200182805461020c90610ee2565b80156102575780601f1061022e57610100808354040283529160200191610257565b820191905f5260205f20905b81548152906001019060200180831161023a57829003601f168201915b505050505090806001015f9054906101000a900460ff16908060010160019054906101000a900460ff16905083565b60025f8281526020019081526020015f2060010160019054906101000a900460ff166102de576040517f6c97757c00000000000000000000000000000000000000000000000000000000815260040160405180910390fd5b5f60015f9054906101000a900473ffffffffffffffffffffffffffffffffffffffff1673ffffffffffffffffffffffffffffffffffffffff16639f8a13d7336040518263ffffffff1660e01b81526004016103399190610c3b565b602060405180830381865afa158015610354573d5f5f3e3d5ffd5b505050506040513d601f19601f820116820180604052508101906103789190610f3c565b9050806103b1576040517f237e6c2800000000000000000000000000000000000000000000000000000000815260040160405180910390fd5b5f60015f9054906101000a900473ffffffffffffffffffffffffffffffffffffffff1673ffffffffffffffffffffffffffffffffffffffff1663f046395a336040518263ffffffff1660e01b815260040161040c9190610c3b565b606060405180830381865afa158015610427573d5f5f3e3d5ffd5b505050506040513d601f19601f8201168201806040525081019061044b9190610fb5565b5050905060025f8481526020019081526020015f206001015f9054906101000a900460ff1660ff168160ff1610156104af576040517f69a392dc00000000000000000000000000000000000000000000000000000000815260040160405180910390fd5b60035f3373ffffffffffffffffffffffffffffffffffffffff1673ffffffffffffffffffffffffffffffffffffffff1681526020019081526020015f205f8481526020019081526020015f205f9054906101000a900460ff161561053f576040517ff2f0997100000000000000000000000000000000000000000000000000000000815260040160405180910390fd5b600160035f3373ffffffffffffffffffffffffffffffffffffffff1673ffffffffffffffffffffffffffffffffffffffff1681526020019081526020015f205f8581526020019081526020015f205f6101000a81548160ff021916908315150217905550823373ffffffffffffffffffffffffffffffffffffffff167fb510c9aee57759f665cd55305b087772f15823830ed02910f8d5396ea59b123d60405160405180910390a3505050565b6003602052815f5260405f20602052805f5260405f205f915091509054906101000a900460ff1681565b61061e610814565b6106275f61089b565b565b5f5f5f9054906101000a900473ffffffffffffffffffffffffffffffffffffffff16905090565b60015f9054906101000a900473ffffffffffffffffffffffffffffffffffffffff1681565b5f60035f8473ffffffffffffffffffffffffffffffffffffffff1673ffffffffffffffffffffffffffffffffffffffff1681526020019081526020015f205f8381526020019081526020015f205f9054906101000a900460ff168015610770575060015f9054906101000a900473ffffffffffffffffffffffffffffffffffffffff1673ffffffffffffffffffffffffffffffffffffffff16639f8a13d7846040518263ffffffff1660e01b81526004016107309190610c3b565b602060405180830381865afa15801561074b573d5f5f3e3d5ffd5b505050506040513d601f19601f8201168201806040525081019061076f9190610f3c565b5b905092915050565b610780610814565b5f73ffffffffffffffffffffffffffffffffffffffff168173ffffffffffffffffffffffffffffffffffffffff16036107f0575f6040517f1e4fbdf70000000000000000000000000000000000000000000000000000000081526004016107e79190610c3b565b60405180910390fd5b6107f98161089b565b50565b610804610814565b61080f83838361095c565b505050565b61081c610a24565b73ffffffffffffffffffffffffffffffffffffffff1661083a610629565b73ffffffffffffffffffffffffffffffffffffffff16146108995761085d610a24565b6040517f118cdaa70000000000000000000000000000000000000000000000000000000081526004016108909190610c3b565b60405180910390fd5b565b5f5f5f9054906101000a900473ffffffffffffffffffffffffffffffffffffffff169050815f5f6101000a81548173ffffffffffffffffffffffffffffffffffffffff021916908373ffffffffffffffffffffffffffffffffffffffff1602179055508173ffffffffffffffffffffffffffffffffffffffff168173ffffffffffffffffffffffffffffffffffffffff167f8be0079c531659141344cd1fd0a4f28419497f9722a3daafe3b4186f6b6457e060405160405180910390a35050565b60405180606001604052808381526020018260ff1681526020016001151581525060025f8581526020019081526020015f205f820151815f0190816109a191906111ad565b506020820151816001015f6101000a81548160ff021916908360ff16021790555060408201518160010160016101000a81548160ff021916908315150217905550905050827f330c6028a3fd88684b1b1b4ca026b5951484283d2451a4c2fa2e8c75b6abf4fd8383604051610a1792919061127c565b60405180910390a2505050565b5f33905090565b5f604051905090565b5f5ffd5b5f5ffd5b5f819050919050565b610a4e81610a3c565b8114610a58575f5ffd5b50565b5f81359050610a6981610a45565b92915050565b5f60208284031215610a8457610a83610a34565b5b5f610a9184828501610a5b565b91505092915050565b5f81519050919050565b5f82825260208201905092915050565b8281835e5f83830152505050565b5f601f19601f8301169050919050565b5f610adc82610a9a565b610ae68185610aa4565b9350610af6818560208601610ab4565b610aff81610ac2565b840191505092915050565b5f60ff82169050919050565b610b1f81610b0a565b82525050565b5f8115159050919050565b610b3981610b25565b82525050565b5f6060820190508181035f830152610b578186610ad2565b9050610b666020830185610b16565b610b736040830184610b30565b949350505050565b5f73ffffffffffffffffffffffffffffffffffffffff82169050919050565b5f610ba482610b7b565b9050919050565b610bb481610b9a565b8114610bbe575f5ffd5b50565b5f81359050610bcf81610bab565b92915050565b5f5f60408385031215610beb57610bea610a34565b5b5f610bf885828601610bc1565b9250506020610c0985828601610a5b565b9150509250929050565b5f602082019050610c265f830184610b30565b92915050565b610c3581610b9a565b82525050565b5f602082019050610c4e5f830184610c2c565b92915050565b5f819050919050565b5f610c77610c72610c6d84610b7b565b610c54565b610b7b565b9050919050565b5f610c8882610c5d565b9050919050565b5f610c9982610c7e565b9050919050565b610ca981610c8f565b82525050565b5f602082019050610cc25f830184610ca0565b92915050565b5f60208284031215610cdd57610cdc610a34565b5b5f610cea84828501610bc1565b91505092915050565b5f5ffd5b5f5ffd5b7f4e487b71000000000000000000000000000000000000000000000000000000005f52604160045260245ffd5b610d3182610ac2565b810181811067ffffffffffffffff82111715610d5057610d4f610cfb565b5b80604052505050565b5f610d62610a2b565b9050610d6e8282610d28565b919050565b5f67ffffffffffffffff821115610d8d57610d8c610cfb565b5b610d9682610ac2565b9050602081019050919050565b828183375f83830152505050565b5f610dc3610dbe84610d73565b610d59565b905082815260208101848484011115610ddf57610dde610cf7565b5b610dea848285610da3565b509392505050565b5f82601f830112610e0657610e05610cf3565b5b8135610e16848260208601610db1565b91505092915050565b610e2881610b0a565b8114610e32575f5ffd5b50565b5f81359050610e4381610e1f565b92915050565b5f5f5f60608486031215610e6057610e5f610a34565b5b5f610e6d86828701610a5b565b935050602084013567ffffffffffffffff811115610e8e57610e8d610a38565b5b610e9a86828701610df2565b9250506040610eab86828701610e35565b9150509250925092565b7f4e487b71000000000000000000000000000000000000000000000000000000005f52602260045260245ffd5b5f6002820490506001821680610ef957607f821691505b602082108103610f0c57610f0b610eb5565b5b50919050565b610f1b81610b25565b8114610f25575f5ffd5b50565b5f81519050610f3681610f12565b92915050565b5f60208284031215610f5157610f50610a34565b5b5f610f5e84828501610f28565b91505092915050565b5f81519050610f7581610e1f565b92915050565b5f64ffffffffff82169050919050565b610f9481610f7b565b8114610f9e575f5ffd5b50565b5f81519050610faf81610f8b565b92915050565b5f5f5f60608486031215610fcc57610fcb610a34565b5b5f610fd986828701610f67565b9350506020610fea86828701610fa1565b9250506040610ffb86828701610f28565b9150509250925092565b5f819050815f5260205f209050919050565b5f6020601f8301049050919050565b5f82821b905092915050565b5f600883026110617fffffffffffffffffffffffffffffffffffffffffffffffffffffffffffffffff82611026565b61106b8683611026565b95508019841693508086168417925050509392505050565b5f61109d61109861109384610a3c565b610c54565b610a3c565b9050919050565b5f819050919050565b6110b683611083565b6110ca6110c2826110a4565b848454611032565b825550505050565b5f5f905090565b6110e16110d2565b6110ec8184846110ad565b505050565b5f5b82811015611112576111075f8284016110d9565b6001810190506110f3565b505050565b601f82111561116557828211156111645761113181611005565b61113a83611017565b61114385611017565b6020861015611150575f90505b80830161115f828403826110f1565b505050505b5b505050565b5f82821c905092915050565b5f6111855f198460080261116a565b1980831691505092915050565b5f61119d8383611176565b9150826002028217905092915050565b6111b682610a9a565b67ffffffffffffffff8111156111cf576111ce610cfb565b5b6111d98254610ee2565b6111e4828285611117565b5f60209050601f831160018114611215575f8415611203578287015190505b61120d8582611192565b865550611274565b601f19841661122386611005565b5f5b8281101561124a57848901518255600182019150602085019450602081019050611225565b868310156112675784890151611263601f891682611176565b8355505b6001600288020188555050505b505050505050565b5f6040820190508181035f8301526112948185610ad2565b90506112a36020830184610b16565b939250505056fea2646970667358221220e1bb9f552645df5cb6fea02590d09bc0cba756d260eb10b08125fc462d8c6a4f64736f6c63430008210033","linkReferences":{}},"methodIdentifiers":{"addSkill(uint256,string,uint8)":"f93a80f1","hasSkill(address,uint256)":"c36492ec","owner()":"8da5cb5b","renounceOwnership()":"715018a6","skills(uint256)":"50d15fbe","subscriptionManager()":"bf158fd2","transferOwnership(address)":"f2fde38b","unlockSkill(uint256)":"5ce98cd8","unlockedSkills(address,uint256)":"6b213020"},"id":33}