{"abi":[{"type":"constructor","inputs":[{"name":"_subscriptionManager","type":"address","internalType":"address"}],"stateMutability":"nonpayable"},{"type":"function","name":"addSkill","inputs":[{"name":"id","type":"uint256","internalType":"uint256"},{"name":"name","type":"string","internalType":"string"},{"name":"minTier","type":"uint8","internalType":"uint8"},{"name":"price","type":"uint256","internalType":"uint256"}],"outputs":[],"stateMutability":"nonpayable"},{"type":"function","name":"hasSkill","inputs":[{"name":"user","type":"address","internalType":"address"},{"name":"skillId","type":"uint256","internalType":"uint256"}],"outputs":[{"name":"","type":"bool","internalType":"bool"}],"stateMutability":"view"},{"type":"function","name":"owner","inputs":[],"outputs":[{"name":"","type":"address","internalType":"address"}],"stateMutability":"view"},{"type":"function","name":"pause","inputs":[],"outputs":[],"stateMutability":"nonpayable"},{"type":"function","name":"paused","inputs":[],"outputs":[{"name":"","type":"bool","internalType":"bool"}],"stateMutability":"view"},{"type":"function","name":"renounceOwnership","inputs":[],"outputs":[],"stateMutability":"nonpayable"},{"type":"function","name":"skills","inputs":[{"name":"","type":"uint256","internalType":"uint256"}],"outputs":[{"name":"name","type":"string","internalType":"string"},{"name":"minTier","type":"uint8","internalType":"uint8"},{"name":"active","type":"bool","internalType":"bool"},{"name":"oneTimePrice","type":"uint256","internalType":"uint256"}],"stateMutability":"view"},{"type":"function","name":"subscriptionManager","inputs":[],"outputs":[{"name":"","type":"address","internalType":"contract SubscriptionManager"}],"stateMutability":"view"},{"type":"function","name":"transferOwnership","inputs":[{"name":"newOwner","type":"address","internalType":"address"}],"outputs":[],"stateMutability":"nonpayable"},{"type":"function","name":"unlockSkill","inputs":[{"name":"skillId","type":"uint256","internalType":"uint256"}],"outputs":[],"stateMutability":"nonpayable"},{"type":"function","name":"unlockedSkills","inputs":[{"name":"","type":"address","internalType":"address"},{"name":"","type":"uint256","internalType":"uint256"}],"outputs":[{"name":"","type":"bool","internalType":"bool"}],"stateMutability":"view"},{"type":"function","name":"unpause","inputs":[],"outputs":[],"stateMutability":"nonpayable"},{"type":"function","name":"usdc","inputs":[],"outputs":[{"name":"","type":"address","internalType":"contract IERC20"}],"stateMutability":"view"},{"type":"event","name":"OwnershipTransferred","inputs":[{"name":"previousOwner","type":"address","indexed":true,"internalType":"address"},{"name":"newOwner","type":"address","indexed":true,"internalType":"address"}],"anonymous":false},{"type":"event","name":"Paused","inputs":[{"name":"account","type":"address","indexed":false,"internalType":"address"}],"anonymous":false},{"type":"event","name":"SkillAdded","inputs":[{"name":"id","type":"uint256","indexed":true,"internalType":"uint256"},{"name":"name","type":"string","indexed":false,"internalType":"string"},{"name":"minTier","type":"uint8","indexed":false,"internalType":"uint8"},{"name":"price","type":"uint256","indexed":false,"internalType":"uint256"}],"anonymous":false},{"type":"event","name":"SkillUnlocked","inputs":[{"name":"user","type":"address","indexed":true,"internalType":"address"},{"name":"skillId","type":"uint256","indexed":true,"internalType":"uint256"},{"name":"pricePaid","type":"uint256","indexed":false,"internalType":"uint256"}],"anonymous":false},{"type":"event","name":"Unpaused","inputs":[{"name":"account","type":"address","indexed":false,"internalType":"address"}],"anonymous":false},{"type":"error","name":"EnforcedPause","inputs":[]},{"type":"error","name":"ExpectedPause","inputs":[]},{"type":"error","name":"InvalidSkill","inputs":[]},{"type":"error","name":"NotSubscribed","inputs":[]},{"type":"error","name":"OwnableInvalidOwner","inputs":[{"name":"owner","type":"address","internalType":"address"}]},{"type":"error","name":"OwnableUnauthorizedAccount","inputs":[{"name":"account","type":"address","internalType":"address"}]},{"type":"error","name":"SafeERC20FailedOperation","inputs":[{"name":"token","type":"address","internalType":"address"}]},{"type":"error","name":"SkillAlreadyUnlocked","inputs":[]},{"type":"error","name":"TierTooLow","inputs":[]},{"type":"error","name":"TransferFailed","inputs":[]}],"bytecode":{"object":"0x60a060405234801561000f575f5ffd5b506040516121c73803806121c783398181016040528101906100319190610533565b335f73ffffffffffffffffffffffffffffffffffffffff168173ffffffffffffffffffffffffffffffffffffffff16036100a2575f6040517f1e4fbdf7000000000000000000000000000000000000000000000000000000008152600401610099919061056d565b60405180910390fd5b6100b18161033960201b60201c565b508060015f6101000a81548173ffffffffffffffffffffffffffffffffffffffff021916908373ffffffffffffffffffffffffffffffffffffffff16021790555060015f9054906101000a900473ffffffffffffffffffffffffffffffffffffffff1673ffffffffffffffffffffffffffffffffffffffff16633e413bee6040518163ffffffff1660e01b8152600401602060405180830381865afa15801561015c573d5f5f3e3d5ffd5b505050506040513d601f19601f8201168201806040525081019061018091906105c1565b73ffffffffffffffffffffffffffffffffffffffff1660808173ffffffffffffffffffffffffffffffffffffffff16815250506101ff60016040518060400160405280601381526020017f41617665205634206c656e642f626f72726f77000000000000000000000000008152506001629896806103fa60201b60201c565b61024c60026040518060400160405280600d81526020017f556e6973776170205634204c500000000000000000000000000000000000000081525060026301312d006103fa60201b60201c565b61029960036040518060400160405280601181526020017f474d582056322070657270657475616c7300000000000000000000000000000081525060026301c9c3806103fa60201b60201c565b6102e660046040518060400160405280601481526020017f50656e646c65207969656c642074726164696e6700000000000000000000000081525060036302faf0806103fa60201b60201c565b61033360056040518060400160405280601a81526020017f4d756c74692d737472617465677920726562616c616e63696e6700000000000081525060036305f5e1006103fa60201b60201c565b506109d5565b5f5f5f9054906101000a900473ffffffffffffffffffffffffffffffffffffffff169050815f5f6101000a81548173ffffffffffffffffffffffffffffffffffffffff021916908373ffffffffffffffffffffffffffffffffffffffff1602179055508173ffffffffffffffffffffffffffffffffffffffff168173ffffffffffffffffffffffffffffffffffffffff167f8be0079c531659141344cd1fd0a4f28419497f9722a3daafe3b4186f6b6457e060405160405180910390a35050565b60405180608001604052808481526020018360ff1681526020016001151581526020018281525060025f8681526020019081526020015f205f820151815f019081610445919061083a565b506020820151816001015f6101000a81548160ff021916908360ff16021790555060408201518160010160016101000a81548160ff02191690831515021790555060608201518160020155905050837f22c7adec9191787a95c897e19a14e96dd6bca26f1a3002cc41f04333b6735e298484846040516104c793929190610999565b60405180910390a250505050565b5f5ffd5b5f73ffffffffffffffffffffffffffffffffffffffff82169050919050565b5f610502826104d9565b9050919050565b610512816104f8565b811461051c575f5ffd5b50565b5f8151905061052d81610509565b92915050565b5f60208284031215610548576105476104d5565b5b5f6105558482850161051f565b91505092915050565b610567816104f8565b82525050565b5f6020820190506105805f83018461055e565b92915050565b5f610590826104f8565b9050919050565b6105a081610586565b81146105aa575f5ffd5b50565b5f815190506105bb81610597565b92915050565b5f602082840312156105d6576105d56104d5565b5b5f6105e3848285016105ad565b91505092915050565b5f81519050919050565b7f4e487b71000000000000000000000000000000000000000000000000000000005f52604160045260245ffd5b7f4e487b71000000000000000000000000000000000000000000000000000000005f52602260045260245ffd5b5f600282049050600182168061066757607f821691505b60208210810361067a57610679610623565b5b50919050565b5f819050815f5260205f209050919050565b5f6020601f8301049050919050565b5f82821b905092915050565b5f600883026106dc7fffffffffffffffffffffffffffffffffffffffffffffffffffffffffffffffff826106a1565b6106e686836106a1565b95508019841693508086168417925050509392505050565b5f819050919050565b5f819050919050565b5f61072a610725610720846106fe565b610707565b6106fe565b9050919050565b5f819050919050565b61074383610710565b61075761074f82610731565b8484546106ad565b825550505050565b5f5f905090565b61076e61075f565b61077981848461073a565b505050565b5f5b8281101561079f576107945f828401610766565b600181019050610780565b505050565b601f8211156107f257828211156107f1576107be81610680565b6107c783610692565b6107d085610692565b60208610156107dd575f90505b8083016107ec8284038261077e565b505050505b5b505050565b5f82821c905092915050565b5f6108125f19846008026107f7565b1980831691505092915050565b5f61082a8383610803565b9150826002028217905092915050565b610843826105ec565b67ffffffffffffffff81111561085c5761085b6105f6565b5b6108668254610650565b6108718282856107a4565b5f60209050601f8311600181146108a2575f8415610890578287015190505b61089a858261081f565b865550610901565b601f1984166108b086610680565b5f5b828110156108d7578489015182556001820191506020850194506020810190506108b2565b868310156108f457848901516108f0601f891682610803565b8355505b6001600288020188555050505b505050505050565b5f82825260208201905092915050565b8281835e5f83830152505050565b5f601f19601f8301169050919050565b5f610941826105ec565b61094b8185610909565b935061095b818560208601610919565b61096481610927565b840191505092915050565b5f60ff82169050919050565b6109848161096f565b82525050565b610993816106fe565b82525050565b5f6060820190508181035f8301526109b18186610937565b90506109c0602083018561097b565b6109cd604083018461098a565b949350505050565b6080516117d36109f45f395f818161025001526106f801526117d35ff3fe608060405234801561000f575f5ffd5b50600436106100cd575f3560e01c80636b2130201161008a5780638da5cb5b116100645780638da5cb5b146101c6578063bf158fd2146101e4578063c36492ec14610202578063f2fde38b14610232576100cd565b80636b21302014610182578063715018a6146101b25780638456cb59146101bc576100cd565b80633e413bee146100d15780633f4ba83a146100ef57806350d15fbe146100f95780635b864c341461012c5780635c975abb146101485780635ce98cd814610166575b5f5ffd5b6100d961024e565b6040516100e69190610ec8565b60405180910390f35b6100f7610272565b005b610113600480360381019061010e9190610f25565b610284565b6040516101239493929190611004565b60405180910390f35b610146600480360381019061014191906111a4565b61034f565b005b610150610369565b60405161015d9190611224565b60405180910390f35b610180600480360381019061017b9190610f25565b61037e565b005b61019c60048036038101906101979190611278565b6107f8565b6040516101a99190611224565b60405180910390f35b6101ba610822565b005b6101c4610835565b005b6101ce610847565b6040516101db91906112c5565b60405180910390f35b6101ec61086e565b6040516101f991906112fe565b60405180910390f35b61021c60048036038101906102179190611278565b610893565b6040516102299190611224565b60405180910390f35b61024c60048036038101906102479190611317565b610996565b005b7f000000000000000000000000000000000000000000000000000000000000000081565b61027a610a1a565b610282610aa1565b565b6002602052805f5260405f205f91509050805f0180546102a39061136f565b80601f01602080910402602001604051908101604052809291908181526020018280546102cf9061136f565b801561031a5780601f106102f15761010080835404028352916020019161031a565b820191905f5260205f20905b8154815290600101906020018083116102fd57829003601f168201915b505050505090806001015f9054906101000a900460ff16908060010160019054906101000a900460ff16908060020154905084565b610357610a1a565b61036384848484610b02565b50505050565b5f5f60149054906101000a900460ff16905090565b610386610bdd565b60025f8281526020019081526020015f2060010160019054906101000a900460ff166103de576040517f6c97757c00000000000000000000000000000000000000000000000000000000815260040160405180910390fd5b5f60015f9054906101000a900473ffffffffffffffffffffffffffffffffffffffff1673ffffffffffffffffffffffffffffffffffffffff16639f8a13d7336040518263ffffffff1660e01b815260040161043991906112c5565b602060405180830381865afa158015610454573d5f5f3e3d5ffd5b505050506040513d601f19601f8201168201806040525081019061047891906113c9565b9050806104b1576040517f237e6c2800000000000000000000000000000000000000000000000000000000815260040160405180910390fd5b5f60015f9054906101000a900473ffffffffffffffffffffffffffffffffffffffff1673ffffffffffffffffffffffffffffffffffffffff1663f046395a336040518263ffffffff1660e01b815260040161050c91906112c5565b606060405180830381865afa158015610527573d5f5f3e3d5ffd5b505050506040513d601f19601f8201168201806040525081019061054b9190611442565b5050905060025f8481526020019081526020015f206001015f9054906101000a900460ff1660ff168160ff1610156105af576040517f69a392dc00000000000000000000000000000000000000000000000000000000815260040160405180910390fd5b60035f3373ffffffffffffffffffffffffffffffffffffffff1673ffffffffffffffffffffffffffffffffffffffff1681526020019081526020015f205f8481526020019081526020015f205f9054906101000a900460ff161561063f576040517ff2f0997100000000000000000000000000000000000000000000000000000000815260040160405180910390fd5b5f60025f8581526020019081526020015f206002015490505f81111561073f575f60015f9054906101000a900473ffffffffffffffffffffffffffffffffffffffff1673ffffffffffffffffffffffffffffffffffffffff166361d027b36040518163ffffffff1660e01b8152600401602060405180830381865afa1580156106ca573d5f5f3e3d5ffd5b505050506040513d601f19601f820116820180604052508101906106ee91906114a6565b905061073d3382847f000000000000000000000000000000000000000000000000000000000000000073ffffffffffffffffffffffffffffffffffffffff16610c1e909392919063ffffffff16565b505b600160035f3373ffffffffffffffffffffffffffffffffffffffff1673ffffffffffffffffffffffffffffffffffffffff1681526020019081526020015f205f8681526020019081526020015f205f6101000a81548160ff021916908315150217905550833373ffffffffffffffffffffffffffffffffffffffff167fa201d649464a6413e59229334b56b1a877d03a35af6636d60f7c2576ec8c6da2836040516107ea91906114d1565b60405180910390a350505050565b6003602052815f5260405f20602052805f5260405f205f915091509054906101000a900460ff1681565b61082a610a1a565b6108335f610c73565b565b61083d610a1a565b610845610d34565b565b5f5f5f9054906101000a900473ffffffffffffffffffffffffffffffffffffffff16905090565b60015f9054906101000a900473ffffffffffffffffffffffffffffffffffffffff1681565b5f60035f8473ffffffffffffffffffffffffffffffffffffffff1673ffffffffffffffffffffffffffffffffffffffff1681526020019081526020015f205f8381526020019081526020015f205f9054906101000a900460ff16801561098e575060015f9054906101000a900473ffffffffffffffffffffffffffffffffffffffff1673ffffffffffffffffffffffffffffffffffffffff16639f8a13d7846040518263ffffffff1660e01b815260040161094e91906112c5565b602060405180830381865afa158015610969573d5f5f3e3d5ffd5b505050506040513d601f19601f8201168201806040525081019061098d91906113c9565b5b905092915050565b61099e610a1a565b5f73ffffffffffffffffffffffffffffffffffffffff168173ffffffffffffffffffffffffffffffffffffffff1603610a0e575f6040517f1e4fbdf7000000000000000000000000000000000000000000000000000000008152600401610a0591906112c5565b60405180910390fd5b610a1781610c73565b50565b610a22610d96565b73ffffffffffffffffffffffffffffffffffffffff16610a40610847565b73ffffffffffffffffffffffffffffffffffffffff1614610a9f57610a63610d96565b6040517f118cdaa7000000000000000000000000000000000000000000000000000000008152600401610a9691906112c5565b60405180910390fd5b565b610aa9610d9d565b5f5f60146101000a81548160ff0219169083151502179055507f5db9ee0a495bf2e6ff9c91a7834c1ba4fdd244a5e8aa4e537bd38aeae4b073aa610aeb610d96565b604051610af891906112c5565b60405180910390a1565b60405180608001604052808481526020018360ff1681526020016001151581526020018281525060025f8681526020019081526020015f205f820151815f019081610b4d9190611692565b506020820151816001015f6101000a81548160ff021916908360ff16021790555060408201518160010160016101000a81548160ff02191690831515021790555060608201518160020155905050837f22c7adec9191787a95c897e19a14e96dd6bca26f1a3002cc41f04333b6735e29848484604051610bcf93929190611761565b60405180910390a250505050565b610be5610369565b15610c1c576040517fd93c066500000000000000000000000000000000000000000000000000000000815260040160405180910390fd5b565b610c2c848484846001610ddd565b610c6d57836040517f5274afe7000000000000000000000000000000000000000000000000000000008152600401610c6491906112c5565b60405180910390fd5b50505050565b5f5f5f9054906101000a900473ffffffffffffffffffffffffffffffffffffffff169050815f5f6101000a81548173ffffffffffffffffffffffffffffffffffffffff021916908373ffffffffffffffffffffffffffffffffffffffff1602179055508173ffffffffffffffffffffffffffffffffffffffff168173ffffffffffffffffffffffffffffffffffffffff167f8be0079c531659141344cd1fd0a4f28419497f9722a3daafe3b4186f6b6457e060405160405180910390a35050565b610d3c610bdd565b60015f60146101000a81548160ff0219169083151502179055507f62e78cea01bee320cd4e420270b5ea74000d11b0c9f74754ebdbfc544b05a258610d7f610d96565b604051610d8c91906112c5565b60405180910390a1565b5f33905090565b610da5610369565b610ddb576040517f8dfc202b00000000000000000000000000000000000000000000000000000000815260040160405180910390fd5b565b5f5f6323b872dd60e01b9050604051815f525f1960601c87166004525f1960601c86166024528460445260205f60645f5f8c5af1925060015f51148316610e3b578383151615610e2f573d5f823e3d81fd5b5f883b113d1516831692505b806040525f606052505095945050505050565b5f73ffffffffffffffffffffffffffffffffffffffff82169050919050565b5f819050919050565b5f610e90610e8b610e8684610e4e565b610e6d565b610e4e565b9050919050565b5f610ea182610e76565b9050919050565b5f610eb282610e97565b9050919050565b610ec281610ea8565b82525050565b5f602082019050610edb5f830184610eb9565b92915050565b5f604051905090565b5f5ffd5b5f5ffd5b5f819050919050565b610f0481610ef2565b8114610f0e575f5ffd5b50565b5f81359050610f1f81610efb565b92915050565b5f60208284031215610f3a57610f39610eea565b5b5f610f4784828501610f11565b91505092915050565b5f81519050919050565b5f82825260208201905092915050565b8281835e5f83830152505050565b5f601f19601f8301169050919050565b5f610f9282610f50565b610f9c8185610f5a565b9350610fac818560208601610f6a565b610fb581610f78565b840191505092915050565b5f60ff82169050919050565b610fd581610fc0565b82525050565b5f8115159050919050565b610fef81610fdb565b82525050565b610ffe81610ef2565b82525050565b5f6080820190508181035f83015261101c8187610f88565b905061102b6020830186610fcc565b6110386040830185610fe6565b6110456060830184610ff5565b95945050505050565b5f5ffd5b5f5ffd5b7f4e487b71000000000000000000000000000000000000000000000000000000005f52604160045260245ffd5b61108c82610f78565b810181811067ffffffffffffffff821117156110ab576110aa611056565b5b80604052505050565b5f6110bd610ee1565b90506110c98282611083565b919050565b5f67ffffffffffffffff8211156110e8576110e7611056565b5b6110f182610f78565b9050602081019050919050565b828183375f83830152505050565b5f61111e611119846110ce565b6110b4565b90508281526020810184848401111561113a57611139611052565b5b6111458482856110fe565b509392505050565b5f82601f8301126111615761116061104e565b5b813561117184826020860161110c565b91505092915050565b61118381610fc0565b811461118d575f5ffd5b50565b5f8135905061119e8161117a565b92915050565b5f5f5f5f608085870312156111bc576111bb610eea565b5b5f6111c987828801610f11565b945050602085013567ffffffffffffffff8111156111ea576111e9610eee565b5b6111f68782880161114d565b935050604061120787828801611190565b925050606061121887828801610f11565b91505092959194509250565b5f6020820190506112375f830184610fe6565b92915050565b5f61124782610e4e565b9050919050565b6112578161123d565b8114611261575f5ffd5b50565b5f813590506112728161124e565b92915050565b5f5f6040838503121561128e5761128d610eea565b5b5f61129b85828601611264565b92505060206112ac85828601610f11565b9150509250929050565b6112bf8161123d565b82525050565b5f6020820190506112d85f8301846112b6565b92915050565b5f6112e882610e97565b9050919050565b6112f8816112de565b82525050565b5f6020820190506113115f8301846112ef565b92915050565b5f6020828403121561132c5761132b610eea565b5b5f61133984828501611264565b91505092915050565b7f4e487b71000000000000000000000000000000000000000000000000000000005f52602260045260245ffd5b5f600282049050600182168061138657607f821691505b60208210810361139957611398611342565b5b50919050565b6113a881610fdb565b81146113b2575f5ffd5b50565b5f815190506113c38161139f565b92915050565b5f602082840312156113de576113dd610eea565b5b5f6113eb848285016113b5565b91505092915050565b5f815190506114028161117a565b92915050565b5f64ffffffffff82169050919050565b61142181611408565b811461142b575f5ffd5b50565b5f8151905061143c81611418565b92915050565b5f5f5f6060848603121561145957611458610eea565b5b5f611466868287016113f4565b93505060206114778682870161142e565b9250506040611488868287016113b5565b9150509250925092565b5f815190506114a08161124e565b92915050565b5f602082840312156114bb576114ba610eea565b5b5f6114c884828501611492565b91505092915050565b5f6020820190506114e45f830184610ff5565b92915050565b5f819050815f5260205f209050919050565b5f6020601f8301049050919050565b5f82821b905092915050565b5f600883026115467fffffffffffffffffffffffffffffffffffffffffffffffffffffffffffffffff8261150b565b611550868361150b565b95508019841693508086168417925050509392505050565b5f61158261157d61157884610ef2565b610e6d565b610ef2565b9050919050565b5f819050919050565b61159b83611568565b6115af6115a782611589565b848454611517565b825550505050565b5f5f905090565b6115c66115b7565b6115d1818484611592565b505050565b5f5b828110156115f7576115ec5f8284016115be565b6001810190506115d8565b505050565b601f82111561164a578282111561164957611616816114ea565b61161f836114fc565b611628856114fc565b6020861015611635575f90505b808301611644828403826115d6565b505050505b5b505050565b5f82821c905092915050565b5f61166a5f198460080261164f565b1980831691505092915050565b5f611682838361165b565b9150826002028217905092915050565b61169b82610f50565b67ffffffffffffffff8111156116b4576116b3611056565b5b6116be825461136f565b6116c98282856115fc565b5f60209050601f8311600181146116fa575f84156116e8578287015190505b6116f28582611677565b865550611759565b601f198416611708866114ea565b5f5b8281101561172f5784890151825560018201915060208501945060208101905061170a565b8683101561174c5784890151611748601f89168261165b565b8355505b6001600288020188555050505b505050505050565b5f6060820190508181035f8301526117798186610f88565b90506117886020830185610fcc565b6117956040830184610ff5565b94935050505056fea264697066735822122089c45104a0144d190fc80b8fffe85a01adbfddf4a7d1e4a0ce7852baecfd426a64736f6c63430008210033","linkReferences":{}},"methodIdentifiers":{"addSkill(uint256,string,uint8,uint256)":"5b864c34","hasSkill(address,uint256)":"c36492ec","owner()":"8da5cb5b","pause()":"8456cb59","paused()":"5c975abb","renounceOwnership()":"715018a6","skills(uint256)":"50d15fbe","subscriptionManager()":"bf158fd2","transferOwnership(address)":"f2fde38b","unlockSkill(uint256)":"5ce98cd8","unlockedSkills(address,uint256)":"6b213020","unpause()":"3f4ba83a","usdc()":"3e413bee"},"id":35}