{"abi":[{"type":"function","name":"execute","inputs":[{"name":"target","type":"address","internalType":"address"},{"name":"value","type":"uint256","internalType":"uint256"},{"name":"data","type":"bytes","internalType":"bytes"}],"outputs":[{"name":"","type":"bytes","internalType":"bytes"}],"stateMutability":"payable"},{"type":"function","name":"isWhitelisted","inputs":[{"name":"target","type":"address","internalType":"address"}],"outputs":[{"name":"","type":"bool","internalType":"bool"}],"stateMutability":"pure"},{"type":"function","name":"revokeSession","inputs":[],"outputs":[],"stateMutability":"nonpayable"},{"type":"function","name":"setupSession","inputs":[{"name":"_agent","type":"address","internalType":"address"},{"name":"_validUntil","type":"uint40","internalType":"uint40"},{"name":"_dailySpendLimit","type":"uint256","internalType":"uint256"}],"outputs":[],"stateMutability":"nonpayable"},{"type":"error","name":"DailyLimitExceeded","inputs":[]},{"type":"error","name":"NotWhitelisted","inputs":[]},{"type":"error","name":"SessionExpired","inputs":[]},{"type":"error","name":"Unauthorized","inputs":[]}],"bytecode":{"object":"0x6080604052348015600e575f5ffd5b50610a518061001c5f395ff3fe60806040526004361061003e575f3560e01c80630936339d146100425780633af32abf1461006a578063b61d27f6146100a6578063c4605d8c146100d6575b5f5ffd5b34801561004d575f5ffd5b50610068600480360381019061006391906106fa565b6100ec565b005b348015610075575f5ffd5b50610090600480360381019061008b919061074a565b61020b565b60405161009d919061078f565b60405180910390f35b6100c060048036038101906100bb9190610809565b6102a0565b6040516100cd91906108ea565b60405180910390f35b3480156100e1575f5ffd5b506100ea610523565b005b3073ffffffffffffffffffffffffffffffffffffffff163373ffffffffffffffffffffffffffffffffffffffff1614610151576040517f82b4290000000000000000000000000000000000000000000000000000000000815260040160405180910390fd5b5f61015a610604565b905083815f015f6101000a81548173ffffffffffffffffffffffffffffffffffffffff021916908373ffffffffffffffffffffffffffffffffffffffff16021790555082815f0160146101000a81548164ffffffffff021916908364ffffffffff1602179055508181600101819055505f816002018190555062015180426101e29190610964565b816003015f6101000a81548164ffffffffff021916908364ffffffffff16021790555050505050565b5f73b5020155268d7b32bf0f03bf01f41026e2390f5673ffffffffffffffffffffffffffffffffffffffff168273ffffffffffffffffffffffffffffffffffffffff160361025c576001905061029b565b5f73ffffffffffffffffffffffffffffffffffffffff168273ffffffffffffffffffffffffffffffffffffffff1603610297575f905061029b565b5f90505b919050565b60605f6102ab610604565b9050805f015f9054906101000a900473ffffffffffffffffffffffffffffffffffffffff1673ffffffffffffffffffffffffffffffffffffffff163373ffffffffffffffffffffffffffffffffffffffff1614610334576040517f82b4290000000000000000000000000000000000000000000000000000000000815260040160405180910390fd5b805f0160149054906101000a900464ffffffffff1664ffffffffff16421115610389576040517f1fd05a4a00000000000000000000000000000000000000000000000000000000815260040160405180910390fd5b6103928661020b565b6103c8576040517f584a793800000000000000000000000000000000000000000000000000000000815260040160405180910390fd5b5f62015180426103d89190610964565b9050816003015f9054906101000a900464ffffffffff1664ffffffffff168164ffffffffff161115610432575f826002018190555080826003015f6101000a81548164ffffffffff021916908364ffffffffff1602179055505b81600101548683600201546104479190610994565b111561047f576040517f194bd31400000000000000000000000000000000000000000000000000000000815260040160405180910390fd5b85826002015f8282546104929190610994565b925050819055505f5f8873ffffffffffffffffffffffffffffffffffffffff168888886040516104c3929190610a03565b5f6040518083038185875af1925050503d805f81146104fd576040519150601f19603f3d011682016040523d82523d5f602084013e610502565b606091505b50915091508161051457805160208201fd5b80945050505050949350505050565b3073ffffffffffffffffffffffffffffffffffffffff163373ffffffffffffffffffffffffffffffffffffffff1614610588576040517f82b4290000000000000000000000000000000000000000000000000000000000815260040160405180910390fd5b5f610591610604565b90505f815f015f6101000a81548173ffffffffffffffffffffffffffffffffffffffff021916908373ffffffffffffffffffffffffffffffffffffffff1602179055505f815f0160146101000a81548164ffffffffff021916908364ffffffffff1602179055505f816001018190555050565b5f7f56a46cd2d7f3fb8fba9003c20d75a6c38827f3114d5ce290da4b8c9c72c2fc00905090565b5f5ffd5b5f5ffd5b5f73ffffffffffffffffffffffffffffffffffffffff82169050919050565b5f61065c82610633565b9050919050565b61066c81610652565b8114610676575f5ffd5b50565b5f8135905061068781610663565b92915050565b5f64ffffffffff82169050919050565b6106a68161068d565b81146106b0575f5ffd5b50565b5f813590506106c18161069d565b92915050565b5f819050919050565b6106d9816106c7565b81146106e3575f5ffd5b50565b5f813590506106f4816106d0565b92915050565b5f5f5f606084860312156107115761071061062b565b5b5f61071e86828701610679565b935050602061072f868287016106b3565b9250506040610740868287016106e6565b9150509250925092565b5f6020828403121561075f5761075e61062b565b5b5f61076c84828501610679565b91505092915050565b5f8115159050919050565b61078981610775565b82525050565b5f6020820190506107a25f830184610780565b92915050565b5f5ffd5b5f5ffd5b5f5ffd5b5f5f83601f8401126107c9576107c86107a8565b5b8235905067ffffffffffffffff8111156107e6576107e56107ac565b5b602083019150836001820283011115610802576108016107b0565b5b9250929050565b5f5f5f5f606085870312156108215761082061062b565b5b5f61082e87828801610679565b945050602061083f878288016106e6565b935050604085013567ffffffffffffffff8111156108605761085f61062f565b5b61086c878288016107b4565b925092505092959194509250565b5f81519050919050565b5f82825260208201905092915050565b8281835e5f83830152505050565b5f601f19601f8301169050919050565b5f6108bc8261087a565b6108c68185610884565b93506108d6818560208601610894565b6108df816108a2565b840191505092915050565b5f6020820190508181035f83015261090281846108b2565b905092915050565b7f4e487b71000000000000000000000000000000000000000000000000000000005f52601260045260245ffd5b7f4e487b71000000000000000000000000000000000000000000000000000000005f52601160045260245ffd5b5f61096e826106c7565b9150610979836106c7565b9250826109895761098861090a565b5b828204905092915050565b5f61099e826106c7565b91506109a9836106c7565b92508282019050808211156109c1576109c0610937565b5b92915050565b5f81905092915050565b828183375f83830152505050565b5f6109ea83856109c7565b93506109f78385846109d1565b82840190509392505050565b5f610a0f8284866109df565b9150819050939250505056fea26469706673582212200e9a121ecf258bacb909894d594fa4e26b768232f0cf566f7d1b89afc40c393464736f6c63430008210033","linkReferences":{}},"methodIdentifiers":{"execute(address,uint256,bytes)":"b61d27f6","isWhitelisted(address)":"3af32abf","revokeSession()":"c4605d8c","setupSession(address,uint40,uint256)":"0936339d"},"id":19}