{"abi":[{"type":"function","name":"approveToken","inputs":[{"name":"token","type":"address","internalType":"address"},{"name":"spender","type":"address","internalType":"address"},{"name":"amount","type":"uint256","internalType":"uint256"}],"outputs":[],"stateMutability":"nonpayable"},{"type":"function","name":"execute","inputs":[{"name":"target","type":"address","internalType":"address"},{"name":"value","type":"uint256","internalType":"uint256"},{"name":"data","type":"bytes","internalType":"bytes"}],"outputs":[{"name":"","type":"bytes","internalType":"bytes"}],"stateMutability":"payable"},{"type":"function","name":"isWhitelisted","inputs":[{"name":"target","type":"address","internalType":"address"}],"outputs":[{"name":"","type":"bool","internalType":"bool"}],"stateMutability":"pure"},{"type":"function","name":"isWhitelistedToken","inputs":[{"name":"token","type":"address","internalType":"address"}],"outputs":[{"name":"","type":"bool","internalType":"bool"}],"stateMutability":"pure"},{"type":"function","name":"revokeSession","inputs":[],"outputs":[],"stateMutability":"nonpayable"},{"type":"function","name":"setupSession","inputs":[{"name":"_agent","type":"address","internalType":"address"},{"name":"_validUntil","type":"uint40","internalType":"uint40"},{"name":"_dailySpendLimit","type":"uint256","internalType":"uint256"}],"outputs":[],"stateMutability":"nonpayable"},{"type":"error","name":"DailyLimitExceeded","inputs":[]},{"type":"error","name":"NotWhitelisted","inputs":[]},{"type":"error","name":"SessionExpired","inputs":[]},{"type":"error","name":"UnapprovedToken","inputs":[]},{"type":"error","name":"Unauthorized","inputs":[]}],"bytecode":{"object":"0x6080604052348015600e575f5ffd5b50610eab8061001c5f395ff3fe608060405260043610610054575f3560e01c80630936339d146100585780633af32abf14610080578063ab37f486146100bc578063b61d27f6146100f8578063c4605d8c14610128578063da3e33971461013e575b5f5ffd5b348015610063575f5ffd5b5061007e60048036038101906100799190610a6a565b610166565b005b34801561008b575f5ffd5b506100a660048036038101906100a19190610aba565b610285565b6040516100b39190610aff565b60405180910390f35b3480156100c7575f5ffd5b506100e260048036038101906100dd9190610aba565b61037f565b6040516100ef9190610aff565b60405180910390f35b610112600480360381019061010d9190610b79565b610429565b60405161011f9190610c5a565b60405180910390f35b348015610133575f5ffd5b5061013c6106ac565b005b348015610149575f5ffd5b50610164600480360381019061015f9190610c7a565b61078d565b005b3073ffffffffffffffffffffffffffffffffffffffff163373ffffffffffffffffffffffffffffffffffffffff16146101cb576040517f82b4290000000000000000000000000000000000000000000000000000000000815260040160405180910390fd5b5f6101d4610974565b905083815f015f6101000a81548173ffffffffffffffffffffffffffffffffffffffff021916908373ffffffffffffffffffffffffffffffffffffffff16021790555082815f0160146101000a81548164ffffffffff021916908364ffffffffff1602179055508181600101819055505f8160020181905550620151804261025c9190610d24565b815f0160196101000a81548164ffffffffff021916908364ffffffffff16021790555050505050565b5f73b5020155268d7b32bf0f03bf01f41026e2390f5673ffffffffffffffffffffffffffffffffffffffff168273ffffffffffffffffffffffffffffffffffffffff16036102d6576001905061037a565b73101f443b4d1b059569d643917553c771e1b9663e73ffffffffffffffffffffffffffffffffffffffff168273ffffffffffffffffffffffffffffffffffffffff1603610326576001905061037a565b73980b62da83eff3d4576c647993b0c1d7faf17c7373ffffffffffffffffffffffffffffffffffffffff168273ffffffffffffffffffffffffffffffffffffffff1603610376576001905061037a565b5f90505b919050565b5f7375faf114eafb1bdbe2f0316df893fd58ce46aa4d73ffffffffffffffffffffffffffffffffffffffff168273ffffffffffffffffffffffffffffffffffffffff16036103d05760019050610424565b73980b62da83eff3d4576c647993b0c1d7faf17c7373ffffffffffffffffffffffffffffffffffffffff168273ffffffffffffffffffffffffffffffffffffffff16036104205760019050610424565b5f90505b919050565b60605f610434610974565b9050805f015f9054906101000a900473ffffffffffffffffffffffffffffffffffffffff1673ffffffffffffffffffffffffffffffffffffffff163373ffffffffffffffffffffffffffffffffffffffff16146104bd576040517f82b4290000000000000000000000000000000000000000000000000000000000815260040160405180910390fd5b805f0160149054906101000a900464ffffffffff1664ffffffffff16421115610512576040517f1fd05a4a00000000000000000000000000000000000000000000000000000000815260040160405180910390fd5b61051b86610285565b610551576040517f584a793800000000000000000000000000000000000000000000000000000000815260040160405180910390fd5b5f62015180426105619190610d24565b9050815f0160199054906101000a900464ffffffffff1664ffffffffff168164ffffffffff1611156105bb575f826002018190555080825f0160196101000a81548164ffffffffff021916908364ffffffffff1602179055505b81600101548683600201546105d09190610d54565b1115610608576040517f194bd31400000000000000000000000000000000000000000000000000000000815260040160405180910390fd5b85826002015f82825461061b9190610d54565b925050819055505f5f8873ffffffffffffffffffffffffffffffffffffffff1688888860405161064c929190610dc3565b5f6040518083038185875af1925050503d805f8114610686576040519150601f19603f3d011682016040523d82523d5f602084013e61068b565b606091505b50915091508161069d57805160208201fd5b80945050505050949350505050565b3073ffffffffffffffffffffffffffffffffffffffff163373ffffffffffffffffffffffffffffffffffffffff1614610711576040517f82b4290000000000000000000000000000000000000000000000000000000000815260040160405180910390fd5b5f61071a610974565b90505f815f015f6101000a81548173ffffffffffffffffffffffffffffffffffffffff021916908373ffffffffffffffffffffffffffffffffffffffff1602179055505f815f0160146101000a81548164ffffffffff021916908364ffffffffff1602179055505f816001018190555050565b5f610796610974565b9050805f015f9054906101000a900473ffffffffffffffffffffffffffffffffffffffff1673ffffffffffffffffffffffffffffffffffffffff163373ffffffffffffffffffffffffffffffffffffffff161461081f576040517f82b4290000000000000000000000000000000000000000000000000000000000815260040160405180910390fd5b805f0160149054906101000a900464ffffffffff1664ffffffffff16421115610874576040517f1fd05a4a00000000000000000000000000000000000000000000000000000000815260040160405180910390fd5b61087d8461037f565b6108b3576040517f4fb8d39c00000000000000000000000000000000000000000000000000000000815260040160405180910390fd5b6108bc83610285565b6108f2576040517f584a793800000000000000000000000000000000000000000000000000000000815260040160405180910390fd5b8373ffffffffffffffffffffffffffffffffffffffff1663095ea7b384846040518363ffffffff1660e01b815260040161092d929190610df9565b6020604051808303815f875af1158015610949573d5f5f3e3d5ffd5b505050506040513d601f19601f8201168201806040525081019061096d9190610e4a565b5050505050565b5f7f56a46cd2d7f3fb8fba9003c20d75a6c38827f3114d5ce290da4b8c9c72c2fc00905090565b5f5ffd5b5f5ffd5b5f73ffffffffffffffffffffffffffffffffffffffff82169050919050565b5f6109cc826109a3565b9050919050565b6109dc816109c2565b81146109e6575f5ffd5b50565b5f813590506109f7816109d3565b92915050565b5f64ffffffffff82169050919050565b610a16816109fd565b8114610a20575f5ffd5b50565b5f81359050610a3181610a0d565b92915050565b5f819050919050565b610a4981610a37565b8114610a53575f5ffd5b50565b5f81359050610a6481610a40565b92915050565b5f5f5f60608486031215610a8157610a8061099b565b5b5f610a8e868287016109e9565b9350506020610a9f86828701610a23565b9250506040610ab086828701610a56565b9150509250925092565b5f60208284031215610acf57610ace61099b565b5b5f610adc848285016109e9565b91505092915050565b5f8115159050919050565b610af981610ae5565b82525050565b5f602082019050610b125f830184610af0565b92915050565b5f5ffd5b5f5ffd5b5f5ffd5b5f5f83601f840112610b3957610b38610b18565b5b8235905067ffffffffffffffff811115610b5657610b55610b1c565b5b602083019150836001820283011115610b7257610b71610b20565b5b9250929050565b5f5f5f5f60608587031215610b9157610b9061099b565b5b5f610b9e878288016109e9565b9450506020610baf87828801610a56565b935050604085013567ffffffffffffffff811115610bd057610bcf61099f565b5b610bdc87828801610b24565b925092505092959194509250565b5f81519050919050565b5f82825260208201905092915050565b8281835e5f83830152505050565b5f601f19601f8301169050919050565b5f610c2c82610bea565b610c368185610bf4565b9350610c46818560208601610c04565b610c4f81610c12565b840191505092915050565b5f6020820190508181035f830152610c728184610c22565b905092915050565b5f5f5f60608486031215610c9157610c9061099b565b5b5f610c9e868287016109e9565b9350506020610caf868287016109e9565b9250506040610cc086828701610a56565b9150509250925092565b7f4e487b71000000000000000000000000000000000000000000000000000000005f52601260045260245ffd5b7f4e487b71000000000000000000000000000000000000000000000000000000005f52601160045260245ffd5b5f610d2e82610a37565b9150610d3983610a37565b925082610d4957610d48610cca565b5b828204905092915050565b5f610d5e82610a37565b9150610d6983610a37565b9250828201905080821115610d8157610d80610cf7565b5b92915050565b5f81905092915050565b828183375f83830152505050565b5f610daa8385610d87565b9350610db7838584610d91565b82840190509392505050565b5f610dcf828486610d9f565b91508190509392505050565b610de4816109c2565b82525050565b610df381610a37565b82525050565b5f604082019050610e0c5f830185610ddb565b610e196020830184610dea565b9392505050565b610e2981610ae5565b8114610e33575f5ffd5b50565b5f81519050610e4481610e20565b92915050565b5f60208284031215610e5f57610e5e61099b565b5b5f610e6c84828501610e36565b9150509291505056fea26469706673582212208702142f68623b79717cb19bea10263eb16b32be6c7191cd26d176978138fc2964736f6c63430008210033","linkReferences":{}},"methodIdentifiers":{"approveToken(address,address,uint256)":"da3e3397","execute(address,uint256,bytes)":"b61d27f6","isWhitelisted(address)":"3af32abf","isWhitelistedToken(address)":"ab37f486","revokeSession()":"c4605d8c","setupSession(address,uint40,uint256)":"0936339d"},"id":28}