{"abi":[{"type":"function","name":"approveToken","inputs":[{"name":"token","type":"address","internalType":"address"},{"name":"spender","type":"address","internalType":"address"},{"name":"amount","type":"uint256","internalType":"uint256"}],"outputs":[],"stateMutability":"nonpayable"},{"type":"function","name":"execute","inputs":[{"name":"target","type":"address","internalType":"address"},{"name":"value","type":"uint256","internalType":"uint256"},{"name":"data","type":"bytes","internalType":"bytes"}],"outputs":[{"name":"","type":"bytes","internalType":"bytes"}],"stateMutability":"payable"},{"type":"function","name":"isWhitelisted","inputs":[{"name":"target","type":"address","internalType":"address"}],"outputs":[{"name":"","type":"bool","internalType":"bool"}],"stateMutability":"pure"},{"type":"function","name":"isWhitelistedToken","inputs":[{"name":"token","type":"address","internalType":"address"}],"outputs":[{"name":"","type":"bool","internalType":"bool"}],"stateMutability":"pure"},{"type":"function","name":"revokeSession","inputs":[],"outputs":[],"stateMutability":"nonpayable"},{"type":"function","name":"setupSession","inputs":[{"name":"_agent","type":"address","internalType":"address"},{"name":"_validUntil","type":"uint40","internalType":"uint40"},{"name":"_dailySpendLimit","type":"uint256","internalType":"uint256"}],"outputs":[],"stateMutability":"nonpayable"},{"type":"error","name":"DailyLimitExceeded","inputs":[]},{"type":"error","name":"NotWhitelisted","inputs":[]},{"type":"error","name":"SessionExpired","inputs":[]},{"type":"error","name":"UnapprovedToken","inputs":[]},{"type":"error","name":"Unauthorized","inputs":[]}],"bytecode":{"object":"0x6080604052348015600e575f5ffd5b50610df68061001c5f395ff3fe608060405260043610610054575f3560e01c80630936339d146100585780633af32abf14610080578063ab37f486146100bc578063b61d27f6146100f8578063c4605d8c14610128578063da3e33971461013e575b5f5ffd5b348015610063575f5ffd5b5061007e600480360381019061007991906109b5565b610166565b005b34801561008b575f5ffd5b506100a660048036038101906100a19190610a05565b610285565b6040516100b39190610a4a565b60405180910390f35b3480156100c7575f5ffd5b506100e260048036038101906100dd9190610a05565b61031a565b6040516100ef9190610a4a565b60405180910390f35b610112600480360381019061010d9190610ac4565b610374565b60405161011f9190610ba5565b60405180910390f35b348015610133575f5ffd5b5061013c6105f7565b005b348015610149575f5ffd5b50610164600480360381019061015f9190610bc5565b6106d8565b005b3073ffffffffffffffffffffffffffffffffffffffff163373ffffffffffffffffffffffffffffffffffffffff16146101cb576040517f82b4290000000000000000000000000000000000000000000000000000000000815260040160405180910390fd5b5f6101d46108bf565b905083815f015f6101000a81548173ffffffffffffffffffffffffffffffffffffffff021916908373ffffffffffffffffffffffffffffffffffffffff16021790555082815f0160146101000a81548164ffffffffff021916908364ffffffffff1602179055508181600101819055505f8160020181905550620151804261025c9190610c6f565b815f0160196101000a81548164ffffffffff021916908364ffffffffff16021790555050505050565b5f73b5020155268d7b32bf0f03bf01f41026e2390f5673ffffffffffffffffffffffffffffffffffffffff168273ffffffffffffffffffffffffffffffffffffffff16036102d65760019050610315565b5f73ffffffffffffffffffffffffffffffffffffffff168273ffffffffffffffffffffffffffffffffffffffff1603610311575f9050610315565b5f90505b919050565b5f7375faf114eafb1bdbe2f0316df893fd58ce46aa4d73ffffffffffffffffffffffffffffffffffffffff168273ffffffffffffffffffffffffffffffffffffffff160361036b576001905061036f565b5f90505b919050565b60605f61037f6108bf565b9050805f015f9054906101000a900473ffffffffffffffffffffffffffffffffffffffff1673ffffffffffffffffffffffffffffffffffffffff163373ffffffffffffffffffffffffffffffffffffffff1614610408576040517f82b4290000000000000000000000000000000000000000000000000000000000815260040160405180910390fd5b805f0160149054906101000a900464ffffffffff1664ffffffffff1642111561045d576040517f1fd05a4a00000000000000000000000000000000000000000000000000000000815260040160405180910390fd5b61046686610285565b61049c576040517f584a793800000000000000000000000000000000000000000000000000000000815260040160405180910390fd5b5f62015180426104ac9190610c6f565b9050815f0160199054906101000a900464ffffffffff1664ffffffffff168164ffffffffff161115610506575f826002018190555080825f0160196101000a81548164ffffffffff021916908364ffffffffff1602179055505b816001015486836002015461051b9190610c9f565b1115610553576040517f194bd31400000000000000000000000000000000000000000000000000000000815260040160405180910390fd5b85826002015f8282546105669190610c9f565b925050819055505f5f8873ffffffffffffffffffffffffffffffffffffffff16888888604051610597929190610d0e565b5f6040518083038185875af1925050503d805f81146105d1576040519150601f19603f3d011682016040523d82523d5f602084013e6105d6565b606091505b5091509150816105e857805160208201fd5b80945050505050949350505050565b3073ffffffffffffffffffffffffffffffffffffffff163373ffffffffffffffffffffffffffffffffffffffff161461065c576040517f82b4290000000000000000000000000000000000000000000000000000000000815260040160405180910390fd5b5f6106656108bf565b90505f815f015f6101000a81548173ffffffffffffffffffffffffffffffffffffffff021916908373ffffffffffffffffffffffffffffffffffffffff1602179055505f815f0160146101000a81548164ffffffffff021916908364ffffffffff1602179055505f816001018190555050565b5f6106e16108bf565b9050805f015f9054906101000a900473ffffffffffffffffffffffffffffffffffffffff1673ffffffffffffffffffffffffffffffffffffffff163373ffffffffffffffffffffffffffffffffffffffff161461076a576040517f82b4290000000000000000000000000000000000000000000000000000000000815260040160405180910390fd5b805f0160149054906101000a900464ffffffffff1664ffffffffff164211156107bf576040517f1fd05a4a00000000000000000000000000000000000000000000000000000000815260040160405180910390fd5b6107c88461031a565b6107fe576040517f4fb8d39c00000000000000000000000000000000000000000000000000000000815260040160405180910390fd5b61080783610285565b61083d576040517f584a793800000000000000000000000000000000000000000000000000000000815260040160405180910390fd5b8373ffffffffffffffffffffffffffffffffffffffff1663095ea7b384846040518363ffffffff1660e01b8152600401610878929190610d44565b6020604051808303815f875af1158015610894573d5f5f3e3d5ffd5b505050506040513d601f19601f820116820180604052508101906108b89190610d95565b5050505050565b5f7f56a46cd2d7f3fb8fba9003c20d75a6c38827f3114d5ce290da4b8c9c72c2fc00905090565b5f5ffd5b5f5ffd5b5f73ffffffffffffffffffffffffffffffffffffffff82169050919050565b5f610917826108ee565b9050919050565b6109278161090d565b8114610931575f5ffd5b50565b5f813590506109428161091e565b92915050565b5f64ffffffffff82169050919050565b61096181610948565b811461096b575f5ffd5b50565b5f8135905061097c81610958565b92915050565b5f819050919050565b61099481610982565b811461099e575f5ffd5b50565b5f813590506109af8161098b565b92915050565b5f5f5f606084860312156109cc576109cb6108e6565b5b5f6109d986828701610934565b93505060206109ea8682870161096e565b92505060406109fb868287016109a1565b9150509250925092565b5f60208284031215610a1a57610a196108e6565b5b5f610a2784828501610934565b91505092915050565b5f8115159050919050565b610a4481610a30565b82525050565b5f602082019050610a5d5f830184610a3b565b92915050565b5f5ffd5b5f5ffd5b5f5ffd5b5f5f83601f840112610a8457610a83610a63565b5b8235905067ffffffffffffffff811115610aa157610aa0610a67565b5b602083019150836001820283011115610abd57610abc610a6b565b5b9250929050565b5f5f5f5f60608587031215610adc57610adb6108e6565b5b5f610ae987828801610934565b9450506020610afa878288016109a1565b935050604085013567ffffffffffffffff811115610b1b57610b1a6108ea565b5b610b2787828801610a6f565b925092505092959194509250565b5f81519050919050565b5f82825260208201905092915050565b8281835e5f83830152505050565b5f601f19601f8301169050919050565b5f610b7782610b35565b610b818185610b3f565b9350610b91818560208601610b4f565b610b9a81610b5d565b840191505092915050565b5f6020820190508181035f830152610bbd8184610b6d565b905092915050565b5f5f5f60608486031215610bdc57610bdb6108e6565b5b5f610be986828701610934565b9350506020610bfa86828701610934565b9250506040610c0b868287016109a1565b9150509250925092565b7f4e487b71000000000000000000000000000000000000000000000000000000005f52601260045260245ffd5b7f4e487b71000000000000000000000000000000000000000000000000000000005f52601160045260245ffd5b5f610c7982610982565b9150610c8483610982565b925082610c9457610c93610c15565b5b828204905092915050565b5f610ca982610982565b9150610cb483610982565b9250828201905080821115610ccc57610ccb610c42565b5b92915050565b5f81905092915050565b828183375f83830152505050565b5f610cf58385610cd2565b9350610d02838584610cdc565b82840190509392505050565b5f610d1a828486610cea565b91508190509392505050565b610d2f8161090d565b82525050565b610d3e81610982565b82525050565b5f604082019050610d575f830185610d26565b610d646020830184610d35565b9392505050565b610d7481610a30565b8114610d7e575f5ffd5b50565b5f81519050610d8f81610d6b565b92915050565b5f60208284031215610daa57610da96108e6565b5b5f610db784828501610d81565b9150509291505056fea26469706673582212203ef4456243f2ccbc03816b82f5b075ed8e781f0b7a2893bd53516a0c7a824eb564736f6c63430008210033","linkReferences":{}},"methodIdentifiers":{"approveToken(address,address,uint256)":"da3e3397","execute(address,uint256,bytes)":"b61d27f6","isWhitelisted(address)":"3af32abf","isWhitelistedToken(address)":"ab37f486","revokeSession()":"c4605d8c","setupSession(address,uint40,uint256)":"0936339d"},"id":34}