{"abi":[{"type":"constructor","inputs":[{"name":"_usdc","type":"address","internalType":"address"},{"name":"_treasury","type":"address","internalType":"address"}],"stateMutability":"nonpayable"},{"type":"function","name":"SECONDS_PER_MONTH","inputs":[],"outputs":[{"name":"","type":"uint256","internalType":"uint256"}],"stateMutability":"view"},{"type":"function","name":"activeUserIndex","inputs":[{"name":"","type":"address","internalType":"address"}],"outputs":[{"name":"","type":"uint256","internalType":"uint256"}],"stateMutability":"view"},{"type":"function","name":"activeUsers","inputs":[{"name":"","type":"uint256","internalType":"uint256"}],"outputs":[{"name":"","type":"address","internalType":"address"}],"stateMutability":"view"},{"type":"function","name":"checkUpkeep","inputs":[{"name":"","type":"bytes","internalType":"bytes"}],"outputs":[{"name":"upkeepNeeded","type":"bool","internalType":"bool"},{"name":"performData","type":"bytes","internalType":"bytes"}],"stateMutability":"view"},{"type":"function","name":"isActive","inputs":[{"name":"user","type":"address","internalType":"address"}],"outputs":[{"name":"","type":"bool","internalType":"bool"}],"stateMutability":"view"},{"type":"function","name":"owner","inputs":[],"outputs":[{"name":"","type":"address","internalType":"address"}],"stateMutability":"view"},{"type":"function","name":"pause","inputs":[],"outputs":[],"stateMutability":"nonpayable"},{"type":"function","name":"paused","inputs":[],"outputs":[{"name":"","type":"bool","internalType":"bool"}],"stateMutability":"view"},{"type":"function","name":"performUpkeep","inputs":[{"name":"performData","type":"bytes","internalType":"bytes"}],"outputs":[],"stateMutability":"nonpayable"},{"type":"function","name":"renewSubscription","inputs":[{"name":"user","type":"address","internalType":"address"}],"outputs":[],"stateMutability":"nonpayable"},{"type":"function","name":"renounceOwnership","inputs":[],"outputs":[],"stateMutability":"nonpayable"},{"type":"function","name":"setTreasury","inputs":[{"name":"_treasury","type":"address","internalType":"address"}],"outputs":[],"stateMutability":"nonpayable"},{"type":"function","name":"subscribe","inputs":[{"name":"tier","type":"uint8","internalType":"uint8"}],"outputs":[],"stateMutability":"nonpayable"},{"type":"function","name":"subscriptions","inputs":[{"name":"","type":"address","internalType":"address"}],"outputs":[{"name":"tier","type":"uint8","internalType":"uint8"},{"name":"paidUntil","type":"uint40","internalType":"uint40"},{"name":"active","type":"bool","internalType":"bool"}],"stateMutability":"view"},{"type":"function","name":"tierPrices","inputs":[{"name":"","type":"uint8","internalType":"uint8"}],"outputs":[{"name":"","type":"uint256","internalType":"uint256"}],"stateMutability":"view"},{"type":"function","name":"transferOwnership","inputs":[{"name":"newOwner","type":"address","internalType":"address"}],"outputs":[],"stateMutability":"nonpayable"},{"type":"function","name":"treasury","inputs":[],"outputs":[{"name":"","type":"address","internalType":"address"}],"stateMutability":"view"},{"type":"function","name":"unpause","inputs":[],"outputs":[],"stateMutability":"nonpayable"},{"type":"function","name":"usdc","inputs":[],"outputs":[{"name":"","type":"address","internalType":"contract IERC20"}],"stateMutability":"view"},{"type":"event","name":"OwnershipTransferred","inputs":[{"name":"previousOwner","type":"address","indexed":true,"internalType":"address"},{"name":"newOwner","type":"address","indexed":true,"internalType":"address"}],"anonymous":false},{"type":"event","name":"Paused","inputs":[{"name":"account","type":"address","indexed":false,"internalType":"address"}],"anonymous":false},{"type":"event","name":"Subscribed","inputs":[{"name":"user","type":"address","indexed":true,"internalType":"address"},{"name":"tier","type":"uint8","indexed":false,"internalType":"uint8"},{"name":"amount","type":"uint256","indexed":false,"internalType":"uint256"}],"anonymous":false},{"type":"event","name":"SubscriptionLapsed","inputs":[{"name":"user","type":"address","indexed":true,"internalType":"address"}],"anonymous":false},{"type":"event","name":"SubscriptionRenewed","inputs":[{"name":"user","type":"address","indexed":true,"internalType":"address"},{"name":"amount","type":"uint256","indexed":false,"internalType":"uint256"}],"anonymous":false},{"type":"event","name":"TreasuryUpdated","inputs":[{"name":"newTreasury","type":"address","indexed":false,"internalType":"address"}],"anonymous":false},{"type":"event","name":"Unpaused","inputs":[{"name":"account","type":"address","indexed":false,"internalType":"address"}],"anonymous":false},{"type":"error","name":"AlreadyActive","inputs":[]},{"type":"error","name":"EnforcedPause","inputs":[]},{"type":"error","name":"ExpectedPause","inputs":[]},{"type":"error","name":"InvalidTier","inputs":[]},{"type":"error","name":"OwnableInvalidOwner","inputs":[{"name":"owner","type":"address","internalType":"address"}]},{"type":"error","name":"OwnableUnauthorizedAccount","inputs":[{"name":"account","type":"address","internalType":"address"}]},{"type":"error","name":"SafeERC20FailedOperation","inputs":[{"name":"token","type":"address","internalType":"address"}]},{"type":"error","name":"TransferFailed","inputs":[]}],"bytecode":{"object":"0x60a060405234801561000f575f5ffd5b506040516122b03803806122b0833981810160405281019061003191906102a6565b335f73ffffffffffffffffffffffffffffffffffffffff168173ffffffffffffffffffffffffffffffffffffffff16036100a2575f6040517f1e4fbdf700000000000000000000000000000000000000000000000000000000815260040161009991906102f3565b60405180910390fd5b6100b18161018760201b60201c565b508173ffffffffffffffffffffffffffffffffffffffff1660808173ffffffffffffffffffffffffffffffffffffffff16815250508060015f6101000a81548173ffffffffffffffffffffffffffffffffffffffff021916908373ffffffffffffffffffffffffffffffffffffffff1602179055506302faf08060055f600160ff1681526020019081526020015f20819055506305f5e10060055f600260ff1681526020019081526020015f2081905550630ee6b28060055f600360ff1681526020019081526020015f2081905550505061030c565b5f5f5f9054906101000a900473ffffffffffffffffffffffffffffffffffffffff169050815f5f6101000a81548173ffffffffffffffffffffffffffffffffffffffff021916908373ffffffffffffffffffffffffffffffffffffffff1602179055508173ffffffffffffffffffffffffffffffffffffffff168173ffffffffffffffffffffffffffffffffffffffff167f8be0079c531659141344cd1fd0a4f28419497f9722a3daafe3b4186f6b6457e060405160405180910390a35050565b5f5ffd5b5f73ffffffffffffffffffffffffffffffffffffffff82169050919050565b5f6102758261024c565b9050919050565b6102858161026b565b811461028f575f5ffd5b50565b5f815190506102a08161027c565b92915050565b5f5f604083850312156102bc576102bb610248565b5b5f6102c985828601610292565b92505060206102da85828601610292565b9150509250929050565b6102ed8161026b565b82525050565b5f6020820190506103065f8301846102e4565b92915050565b608051611f706103405f395f81816103a40152818161050e01528181610b7d01528181610c210152610ce80152611f705ff3fe608060405234801561000f575f5ffd5b506004361061011f575f3560e01c8063715018a6116100ab578063b4fad6f81161006f578063b4fad6f8146102d0578063e02eb10914610300578063f046395a1461031c578063f0f442601461034e578063f2fde38b1461036a5761011f565b8063715018a61461023e578063803ae518146102485780638456cb59146102785780638da5cb5b146102825780639f8a13d7146102a05761011f565b80634585e33b116100f25780634585e33b1461019957806349c7e639146101b55780635c975abb146101d157806361d027b3146101ef5780636e04ff0d1461020d5761011f565b806310786deb146101235780631a29bb54146101415780633e413bee146101715780633f4ba83a1461018f575b5f5ffd5b61012b610386565b604051610138919061170a565b60405180910390f35b61015b6004803603810190610156919061178e565b61038d565b604051610168919061170a565b60405180910390f35b6101796103a2565b6040516101869190611814565b60405180910390f35b6101976103c6565b005b6101b360048036038101906101ae919061188e565b6103d8565b005b6101cf60048036038101906101ca919061190f565b610436565b005b6101d961068b565b6040516101e69190611954565b60405180910390f35b6101f76106a0565b604051610204919061197c565b60405180910390f35b6102276004803603810190610222919061188e565b6106c5565b604051610235929190611a05565b60405180910390f35b610246610963565b005b610262600480360381019061025d9190611a5d565b610976565b60405161026f919061197c565b60405180910390f35b6102806109b1565b005b61028a6109c3565b604051610297919061197c565b60405180910390f35b6102ba60048036038101906102b5919061178e565b6109ea565b6040516102c79190611954565b60405180910390f35b6102ea60048036038101906102e5919061190f565b610aa1565b6040516102f7919061170a565b60405180910390f35b61031a6004803603810190610315919061178e565b610ab6565b005b6103366004803603810190610331919061178e565b610e8f565b60405161034593929190611ab6565b60405180910390f35b6103686004803603810190610363919061178e565b610edd565b005b610384600480360381019061037f919061178e565b610f5f565b005b6228de8081565b6004602052805f5260405f205f915090505481565b7f000000000000000000000000000000000000000000000000000000000000000081565b6103ce610fe3565b6103d661106a565b565b6103e06110cb565b5f82828101906103f09190611c23565b90505f5f90505b81518110156104305761042382828151811061041657610415611c6a565b5b6020026020010151610ab6565b80806001019150506103f7565b50505050565b61043e6110cb565b60018160ff161080610453575060038160ff16115b1561048a576040517fe142361700000000000000000000000000000000000000000000000000000000815260040160405180910390fd5b610493336109ea565b156104ca576040517ff9be60a200000000000000000000000000000000000000000000000000000000815260040160405180910390fd5b5f60055f8360ff1660ff1681526020019081526020015f205490506105533360015f9054906101000a900473ffffffffffffffffffffffffffffffffffffffff16837f000000000000000000000000000000000000000000000000000000000000000073ffffffffffffffffffffffffffffffffffffffff1661110c909392919063ffffffff16565b60405180606001604052808360ff1681526020016228de80426105769190611cc4565b64ffffffffff1681526020016001151581525060025f3373ffffffffffffffffffffffffffffffffffffffff1673ffffffffffffffffffffffffffffffffffffffff1681526020019081526020015f205f820151815f015f6101000a81548160ff021916908360ff1602179055506020820151815f0160016101000a81548164ffffffffff021916908364ffffffffff1602179055506040820151815f0160066101000a81548160ff02191690831515021790555090505061063733611161565b3373ffffffffffffffffffffffffffffffffffffffff167f044f95a2d17727b5b87e4f23d70278b59a2b0b285289cc9021cac8cdba4797b7838360405161067f929190611cf7565b60405180910390a25050565b5f5f60149054906101000a900460ff16905090565b60015f9054906101000a900473ffffffffffffffffffffffffffffffffffffffff1681565b5f60605f60038054905090505f606482116106e057816106e3565b60645b90505f8167ffffffffffffffff811115610700576106ff611aeb565b5b60405190808252806020026020018201604052801561072e5781602001602082028036833780820191505090505b5090505f5f90505f5f90505b83811015610858575f6003828154811061075757610756611c6a565b5b905f5260205f20015f9054906101000a900473ffffffffffffffffffffffffffffffffffffffff16905062015180426107909190611cc4565b60025f8373ffffffffffffffffffffffffffffffffffffffff1673ffffffffffffffffffffffffffffffffffffffff1681526020019081526020015f205f0160019054906101000a900464ffffffffff1664ffffffffff161161084a578084848151811061080157610800611c6a565b5b602002602001019073ffffffffffffffffffffffffffffffffffffffff16908173ffffffffffffffffffffffffffffffffffffffff1681525050828061084690611d1e565b9350505b50808060010191505061073a565b505f81111561095857600195505f8167ffffffffffffffff8111156108805761087f611aeb565b5b6040519080825280602002602001820160405280156108ae5781602001602082028036833780820191505090505b5090505f5f90505b82811015610933578381815181106108d1576108d0611c6a565b5b60200260200101518282815181106108ec576108eb611c6a565b5b602002602001019073ffffffffffffffffffffffffffffffffffffffff16908173ffffffffffffffffffffffffffffffffffffffff168152505080806001019150506108b6565b50806040516020016109459190611e1c565b6040516020818303038152906040529550505b505050509250929050565b61096b610fe3565b6109745f6112df565b565b60038181548110610985575f80fd5b905f5260205f20015f915054906101000a900473ffffffffffffffffffffffffffffffffffffffff1681565b6109b9610fe3565b6109c16113a0565b565b5f5f5f9054906101000a900473ffffffffffffffffffffffffffffffffffffffff16905090565b5f60025f8373ffffffffffffffffffffffffffffffffffffffff1673ffffffffffffffffffffffffffffffffffffffff1681526020019081526020015f205f0160069054906101000a900460ff168015610a9a57504260025f8473ffffffffffffffffffffffffffffffffffffffff1673ffffffffffffffffffffffffffffffffffffffff1681526020019081526020015f205f0160019054906101000a900464ffffffffff1664ffffffffff16115b9050919050565b6005602052805f5260405f205f915090505481565b610abe6110cb565b5f60025f8373ffffffffffffffffffffffffffffffffffffffff1673ffffffffffffffffffffffffffffffffffffffff1681526020019081526020015f209050805f0160069054906101000a900460ff16610b195750610e8c565b6201518042610b289190611cc4565b815f0160019054906101000a900464ffffffffff1664ffffffffff161115610b505750610e8c565b5f60055f835f015f9054906101000a900460ff1660ff1660ff1681526020019081526020015f20549050807f000000000000000000000000000000000000000000000000000000000000000073ffffffffffffffffffffffffffffffffffffffff1663dd62ed3e85306040518363ffffffff1660e01b8152600401610bd6929190611e3c565b602060405180830381865afa158015610bf1573d5f5f3e3d5ffd5b505050506040513d601f19601f82011682018060405250810190610c159190611e77565b10158015610cba5750807f000000000000000000000000000000000000000000000000000000000000000073ffffffffffffffffffffffffffffffffffffffff166370a08231856040518263ffffffff1660e01b8152600401610c78919061197c565b602060405180830381865afa158015610c93573d5f5f3e3d5ffd5b505050506040513d601f19601f82011682018060405250810190610cb79190611e77565b10155b15610e2157610d2d8360015f9054906101000a900473ffffffffffffffffffffffffffffffffffffffff16837f000000000000000000000000000000000000000000000000000000000000000073ffffffffffffffffffffffffffffffffffffffff1661110c909392919063ffffffff16565b815f0160019054906101000a900464ffffffffff1664ffffffffff16421115610d87576228de8042610d5f9190611cc4565b825f0160016101000a81548164ffffffffff021916908364ffffffffff160217905550610dce565b6228de80825f0160018282829054906101000a900464ffffffffff16610dad9190611ea2565b92506101000a81548164ffffffffff021916908364ffffffffff1602179055505b8273ffffffffffffffffffffffffffffffffffffffff167f0e3bc79b6527253ae333c773455df588f62bcc1ad9726d42dbdc179356232a6082604051610e14919061170a565b60405180910390a2610e89565b5f825f0160066101000a81548160ff021916908315150217905550610e4583611402565b8273ffffffffffffffffffffffffffffffffffffffff167fdc31a00721d237ebb72d3bdb77406fe9cfd083c0ac80201a38c0eea61bfa60f760405160405180910390a25b50505b50565b6002602052805f5260405f205f91509050805f015f9054906101000a900460ff1690805f0160019054906101000a900464ffffffffff1690805f0160069054906101000a900460ff16905083565b610ee5610fe3565b8060015f6101000a81548173ffffffffffffffffffffffffffffffffffffffff021916908373ffffffffffffffffffffffffffffffffffffffff1602179055507f7dae230f18360d76a040c81f050aa14eb9d6dc7901b20fc5d855e2a20fe814d181604051610f54919061197c565b60405180910390a150565b610f67610fe3565b5f73ffffffffffffffffffffffffffffffffffffffff168173ffffffffffffffffffffffffffffffffffffffff1603610fd7575f6040517f1e4fbdf7000000000000000000000000000000000000000000000000000000008152600401610fce919061197c565b60405180910390fd5b610fe0816112df565b50565b610feb61163a565b73ffffffffffffffffffffffffffffffffffffffff166110096109c3565b73ffffffffffffffffffffffffffffffffffffffff16146110685761102c61163a565b6040517f118cdaa700000000000000000000000000000000000000000000000000000000815260040161105f919061197c565b60405180910390fd5b565b611072611641565b5f5f60146101000a81548160ff0219169083151502179055507f5db9ee0a495bf2e6ff9c91a7834c1ba4fdd244a5e8aa4e537bd38aeae4b073aa6110b461163a565b6040516110c1919061197c565b60405180910390a1565b6110d361068b565b1561110a576040517fd93c066500000000000000000000000000000000000000000000000000000000815260040160405180910390fd5b565b61111a848484846001611681565b61115b57836040517f5274afe7000000000000000000000000000000000000000000000000000000008152600401611152919061197c565b60405180910390fd5b50505050565b5f60045f8373ffffffffffffffffffffffffffffffffffffffff1673ffffffffffffffffffffffffffffffffffffffff1681526020019081526020015f205414801561122357505f600380549050148061122257508073ffffffffffffffffffffffffffffffffffffffff1660035f815481106111e1576111e0611c6a565b5b905f5260205f20015f9054906101000a900473ffffffffffffffffffffffffffffffffffffffff1673ffffffffffffffffffffffffffffffffffffffff1614155b5b156112dc57600381908060018154018082558091505060019003905f5260205f20015f9091909190916101000a81548173ffffffffffffffffffffffffffffffffffffffff021916908373ffffffffffffffffffffffffffffffffffffffff160217905550600160038054905061129a9190611eda565b60045f8373ffffffffffffffffffffffffffffffffffffffff1673ffffffffffffffffffffffffffffffffffffffff1681526020019081526020015f20819055505b50565b5f5f5f9054906101000a900473ffffffffffffffffffffffffffffffffffffffff169050815f5f6101000a81548173ffffffffffffffffffffffffffffffffffffffff021916908373ffffffffffffffffffffffffffffffffffffffff1602179055508173ffffffffffffffffffffffffffffffffffffffff168173ffffffffffffffffffffffffffffffffffffffff167f8be0079c531659141344cd1fd0a4f28419497f9722a3daafe3b4186f6b6457e060405160405180910390a35050565b6113a86110cb565b60015f60146101000a81548160ff0219169083151502179055507f62e78cea01bee320cd4e420270b5ea74000d11b0c9f74754ebdbfc544b05a2586113eb61163a565b6040516113f8919061197c565b60405180910390a1565b5f60045f8373ffffffffffffffffffffffffffffffffffffffff1673ffffffffffffffffffffffffffffffffffffffff1681526020019081526020015f205490505f6003805490501180156114bd57508173ffffffffffffffffffffffffffffffffffffffff166003828154811061147d5761147c611c6a565b5b905f5260205f20015f9054906101000a900473ffffffffffffffffffffffffffffffffffffffff1673ffffffffffffffffffffffffffffffffffffffff16145b15611636575f600360016003805490506114d79190611eda565b815481106114e8576114e7611c6a565b5b905f5260205f20015f9054906101000a900473ffffffffffffffffffffffffffffffffffffffff169050806003838154811061152757611526611c6a565b5b905f5260205f20015f6101000a81548173ffffffffffffffffffffffffffffffffffffffff021916908373ffffffffffffffffffffffffffffffffffffffff1602179055508160045f8373ffffffffffffffffffffffffffffffffffffffff1673ffffffffffffffffffffffffffffffffffffffff1681526020019081526020015f208190555060038054806115c0576115bf611f0d565b5b600190038181905f5260205f20015f6101000a81549073ffffffffffffffffffffffffffffffffffffffff021916905590555f60045f8573ffffffffffffffffffffffffffffffffffffffff1673ffffffffffffffffffffffffffffffffffffffff1681526020019081526020015f2081905550505b5050565b5f33905090565b61164961068b565b61167f576040517f8dfc202b00000000000000000000000000000000000000000000000000000000815260040160405180910390fd5b565b5f5f6323b872dd60e01b9050604051815f525f1960601c87166004525f1960601c86166024528460445260205f60645f5f8c5af1925060015f511483166116df5783831516156116d3573d5f823e3d81fd5b5f883b113d1516831692505b806040525f606052505095945050505050565b5f819050919050565b611704816116f2565b82525050565b5f60208201905061171d5f8301846116fb565b92915050565b5f604051905090565b5f5ffd5b5f5ffd5b5f73ffffffffffffffffffffffffffffffffffffffff82169050919050565b5f61175d82611734565b9050919050565b61176d81611753565b8114611777575f5ffd5b50565b5f8135905061178881611764565b92915050565b5f602082840312156117a3576117a261172c565b5b5f6117b08482850161177a565b91505092915050565b5f819050919050565b5f6117dc6117d76117d284611734565b6117b9565b611734565b9050919050565b5f6117ed826117c2565b9050919050565b5f6117fe826117e3565b9050919050565b61180e816117f4565b82525050565b5f6020820190506118275f830184611805565b92915050565b5f5ffd5b5f5ffd5b5f5ffd5b5f5f83601f84011261184e5761184d61182d565b5b8235905067ffffffffffffffff81111561186b5761186a611831565b5b60208301915083600182028301111561188757611886611835565b5b9250929050565b5f5f602083850312156118a4576118a361172c565b5b5f83013567ffffffffffffffff8111156118c1576118c0611730565b5b6118cd85828601611839565b92509250509250929050565b5f60ff82169050919050565b6118ee816118d9565b81146118f8575f5ffd5b50565b5f81359050611909816118e5565b92915050565b5f602082840312156119245761192361172c565b5b5f611931848285016118fb565b91505092915050565b5f8115159050919050565b61194e8161193a565b82525050565b5f6020820190506119675f830184611945565b92915050565b61197681611753565b82525050565b5f60208201905061198f5f83018461196d565b92915050565b5f81519050919050565b5f82825260208201905092915050565b8281835e5f83830152505050565b5f601f19601f8301169050919050565b5f6119d782611995565b6119e1818561199f565b93506119f18185602086016119af565b6119fa816119bd565b840191505092915050565b5f604082019050611a185f830185611945565b8181036020830152611a2a81846119cd565b90509392505050565b611a3c816116f2565b8114611a46575f5ffd5b50565b5f81359050611a5781611a33565b92915050565b5f60208284031215611a7257611a7161172c565b5b5f611a7f84828501611a49565b91505092915050565b611a91816118d9565b82525050565b5f64ffffffffff82169050919050565b611ab081611a97565b82525050565b5f606082019050611ac95f830186611a88565b611ad66020830185611aa7565b611ae36040830184611945565b949350505050565b7f4e487b71000000000000000000000000000000000000000000000000000000005f52604160045260245ffd5b611b21826119bd565b810181811067ffffffffffffffff82111715611b4057611b3f611aeb565b5b80604052505050565b5f611b52611723565b9050611b5e8282611b18565b919050565b5f67ffffffffffffffff821115611b7d57611b7c611aeb565b5b602082029050602081019050919050565b5f611ba0611b9b84611b63565b611b49565b90508083825260208201905060208402830185811115611bc357611bc2611835565b5b835b81811015611bec5780611bd8888261177a565b845260208401935050602081019050611bc5565b5050509392505050565b5f82601f830112611c0a57611c0961182d565b5b8135611c1a848260208601611b8e565b91505092915050565b5f60208284031215611c3857611c3761172c565b5b5f82013567ffffffffffffffff811115611c5557611c54611730565b5b611c6184828501611bf6565b91505092915050565b7f4e487b71000000000000000000000000000000000000000000000000000000005f52603260045260245ffd5b7f4e487b71000000000000000000000000000000000000000000000000000000005f52601160045260245ffd5b5f611cce826116f2565b9150611cd9836116f2565b9250828201905080821115611cf157611cf0611c97565b5b92915050565b5f604082019050611d0a5f830185611a88565b611d1760208301846116fb565b9392505050565b5f611d28826116f2565b91507fffffffffffffffffffffffffffffffffffffffffffffffffffffffffffffffff8203611d5a57611d59611c97565b5b600182019050919050565b5f81519050919050565b5f82825260208201905092915050565b5f819050602082019050919050565b611d9781611753565b82525050565b5f611da88383611d8e565b60208301905092915050565b5f602082019050919050565b5f611dca82611d65565b611dd48185611d6f565b9350611ddf83611d7f565b805f5b83811015611e0f578151611df68882611d9d565b9750611e0183611db4565b925050600181019050611de2565b5085935050505092915050565b5f6020820190508181035f830152611e348184611dc0565b905092915050565b5f604082019050611e4f5f83018561196d565b611e5c602083018461196d565b9392505050565b5f81519050611e7181611a33565b92915050565b5f60208284031215611e8c57611e8b61172c565b5b5f611e9984828501611e63565b91505092915050565b5f611eac82611a97565b9150611eb783611a97565b9250828201905064ffffffffff811115611ed457611ed3611c97565b5b92915050565b5f611ee4826116f2565b9150611eef836116f2565b9250828203905081811115611f0757611f06611c97565b5b92915050565b7f4e487b71000000000000000000000000000000000000000000000000000000005f52603160045260245ffdfea26469706673582212207ce547fb4c7cdda41ae9d027263242feb177c8b7d47949c1c20636e98b9d612c64736f6c63430008210033","linkReferences":{}},"methodIdentifiers":{"SECONDS_PER_MONTH()":"10786deb","activeUserIndex(address)":"1a29bb54","activeUsers(uint256)":"803ae518","checkUpkeep(bytes)":"6e04ff0d","isActive(address)":"9f8a13d7","owner()":"8da5cb5b","pause()":"8456cb59","paused()":"5c975abb","performUpkeep(bytes)":"4585e33b","renewSubscription(address)":"e02eb109","renounceOwnership()":"715018a6","setTreasury(address)":"f0f44260","subscribe(uint8)":"49c7e639","subscriptions(address)":"f046395a","tierPrices(uint8)":"b4fad6f8","transferOwnership(address)":"f2fde38b","treasury()":"61d027b3","unpause()":"3f4ba83a","usdc()":"3e413bee"},"id":36}