{"abi":[{"type":"constructor","inputs":[{"name":"_usdc","type":"address","internalType":"address"},{"name":"_treasury","type":"address","internalType":"address"}],"stateMutability":"nonpayable"},{"type":"function","name":"SECONDS_PER_MONTH","inputs":[],"outputs":[{"name":"","type":"uint256","internalType":"uint256"}],"stateMutability":"view"},{"type":"function","name":"activeUserIndex","inputs":[{"name":"","type":"address","internalType":"address"}],"outputs":[{"name":"","type":"uint256","internalType":"uint256"}],"stateMutability":"view"},{"type":"function","name":"activeUsers","inputs":[{"name":"","type":"uint256","internalType":"uint256"}],"outputs":[{"name":"","type":"address","internalType":"address"}],"stateMutability":"view"},{"type":"function","name":"checkUpkeep","inputs":[{"name":"","type":"bytes","internalType":"bytes"}],"outputs":[{"name":"upkeepNeeded","type":"bool","internalType":"bool"},{"name":"performData","type":"bytes","internalType":"bytes"}],"stateMutability":"view"},{"type":"function","name":"isActive","inputs":[{"name":"user","type":"address","internalType":"address"}],"outputs":[{"name":"","type":"bool","internalType":"bool"}],"stateMutability":"view"},{"type":"function","name":"owner","inputs":[],"outputs":[{"name":"","type":"address","internalType":"address"}],"stateMutability":"view"},{"type":"function","name":"performUpkeep","inputs":[{"name":"performData","type":"bytes","internalType":"bytes"}],"outputs":[],"stateMutability":"nonpayable"},{"type":"function","name":"renewSubscription","inputs":[{"name":"user","type":"address","internalType":"address"}],"outputs":[],"stateMutability":"nonpayable"},{"type":"function","name":"renounceOwnership","inputs":[],"outputs":[],"stateMutability":"nonpayable"},{"type":"function","name":"setTreasury","inputs":[{"name":"_treasury","type":"address","internalType":"address"}],"outputs":[],"stateMutability":"nonpayable"},{"type":"function","name":"subscribe","inputs":[{"name":"tier","type":"uint8","internalType":"uint8"}],"outputs":[],"stateMutability":"nonpayable"},{"type":"function","name":"subscriptions","inputs":[{"name":"","type":"address","internalType":"address"}],"outputs":[{"name":"tier","type":"uint8","internalType":"uint8"},{"name":"paidUntil","type":"uint40","internalType":"uint40"},{"name":"active","type":"bool","internalType":"bool"}],"stateMutability":"view"},{"type":"function","name":"tierPrices","inputs":[{"name":"","type":"uint8","internalType":"uint8"}],"outputs":[{"name":"","type":"uint256","internalType":"uint256"}],"stateMutability":"view"},{"type":"function","name":"transferOwnership","inputs":[{"name":"newOwner","type":"address","internalType":"address"}],"outputs":[],"stateMutability":"nonpayable"},{"type":"function","name":"treasury","inputs":[],"outputs":[{"name":"","type":"address","internalType":"address"}],"stateMutability":"view"},{"type":"function","name":"usdc","inputs":[],"outputs":[{"name":"","type":"address","internalType":"contract IERC20"}],"stateMutability":"view"},{"type":"event","name":"OwnershipTransferred","inputs":[{"name":"previousOwner","type":"address","indexed":true,"internalType":"address"},{"name":"newOwner","type":"address","indexed":true,"internalType":"address"}],"anonymous":false},{"type":"event","name":"Subscribed","inputs":[{"name":"user","type":"address","indexed":true,"internalType":"address"},{"name":"tier","type":"uint8","indexed":false,"internalType":"uint8"},{"name":"amount","type":"uint256","indexed":false,"internalType":"uint256"}],"anonymous":false},{"type":"event","name":"SubscriptionLapsed","inputs":[{"name":"user","type":"address","indexed":true,"internalType":"address"}],"anonymous":false},{"type":"event","name":"SubscriptionRenewed","inputs":[{"name":"user","type":"address","indexed":true,"internalType":"address"},{"name":"amount","type":"uint256","indexed":false,"internalType":"uint256"}],"anonymous":false},{"type":"event","name":"TreasuryUpdated","inputs":[{"name":"newTreasury","type":"address","indexed":false,"internalType":"address"}],"anonymous":false},{"type":"error","name":"AlreadyActive","inputs":[]},{"type":"error","name":"InvalidTier","inputs":[]},{"type":"error","name":"OwnableInvalidOwner","inputs":[{"name":"owner","type":"address","internalType":"address"}]},{"type":"error","name":"OwnableUnauthorizedAccount","inputs":[{"name":"account","type":"address","internalType":"address"}]},{"type":"error","name":"SafeERC20FailedOperation","inputs":[{"name":"token","type":"address","internalType":"address"}]},{"type":"error","name":"TransferFailed","inputs":[]}],"bytecode":{"object":"0x60a060405234801561000f575f5ffd5b5060405161200c38038061200c833981810160405281019061003191906102a6565b335f73ffffffffffffffffffffffffffffffffffffffff168173ffffffffffffffffffffffffffffffffffffffff16036100a2575f6040517f1e4fbdf700000000000000000000000000000000000000000000000000000000815260040161009991906102f3565b60405180910390fd5b6100b18161018760201b60201c565b508173ffffffffffffffffffffffffffffffffffffffff1660808173ffffffffffffffffffffffffffffffffffffffff16815250508060015f6101000a81548173ffffffffffffffffffffffffffffffffffffffff021916908373ffffffffffffffffffffffffffffffffffffffff1602179055506302faf08060055f600160ff1681526020019081526020015f20819055506305f5e10060055f600260ff1681526020019081526020015f2081905550630ee6b28060055f600360ff1681526020019081526020015f2081905550505061030c565b5f5f5f9054906101000a900473ffffffffffffffffffffffffffffffffffffffff169050815f5f6101000a81548173ffffffffffffffffffffffffffffffffffffffff021916908373ffffffffffffffffffffffffffffffffffffffff1602179055508173ffffffffffffffffffffffffffffffffffffffff168173ffffffffffffffffffffffffffffffffffffffff167f8be0079c531659141344cd1fd0a4f28419497f9722a3daafe3b4186f6b6457e060405160405180910390a35050565b5f5ffd5b5f73ffffffffffffffffffffffffffffffffffffffff82169050919050565b5f6102758261024c565b9050919050565b6102858161026b565b811461028f575f5ffd5b50565b5f815190506102a08161027c565b92915050565b5f5f604083850312156102bc576102bb610248565b5b5f6102c985828601610292565b92505060206102da85828601610292565b9150509250929050565b6102ed8161026b565b82525050565b5f6020820190506103065f8301846102e4565b92915050565b608051611ccc6103405f395f81816103510152818161049901528181610ac401528181610b680152610c2f0152611ccc5ff3fe608060405234801561000f575f5ffd5b50600436106100fe575f3560e01c8063803ae51811610095578063e02eb10911610064578063e02eb109146102ad578063f046395a146102c9578063f0f44260146102fb578063f2fde38b14610317576100fe565b8063803ae518146101ff5780638da5cb5b1461022f5780639f8a13d71461024d578063b4fad6f81461027d576100fe565b806349c7e639116100d157806349c7e6391461018a57806361d027b3146101a65780636e04ff0d146101c4578063715018a6146101f5576100fe565b806310786deb146101025780631a29bb54146101205780633e413bee146101505780634585e33b1461016e575b5f5ffd5b61010a610333565b604051610117919061149e565b60405180910390f35b61013a60048036038101906101359190611522565b61033a565b604051610147919061149e565b60405180910390f35b61015861034f565b60405161016591906115a8565b60405180910390f35b61018860048036038101906101839190611622565b610373565b005b6101a4600480360381019061019f91906116a3565b6103c9565b005b6101ae610616565b6040516101bb91906116dd565b60405180910390f35b6101de60048036038101906101d99190611622565b61063b565b6040516101ec929190611780565b60405180910390f35b6101fd6108c4565b005b610219600480360381019061021491906117d8565b6108d7565b60405161022691906116dd565b60405180910390f35b610237610912565b60405161024491906116dd565b60405180910390f35b61026760048036038101906102629190611522565b610939565b6040516102749190611803565b60405180910390f35b610297600480360381019061029291906116a3565b6109f0565b6040516102a4919061149e565b60405180910390f35b6102c760048036038101906102c29190611522565b610a05565b005b6102e360048036038101906102de9190611522565b610d67565b6040516102f29392919061184a565b60405180910390f35b61031560048036038101906103109190611522565b610db5565b005b610331600480360381019061032c9190611522565b610e37565b005b6228de8081565b6004602052805f5260405f205f915090505481565b7f000000000000000000000000000000000000000000000000000000000000000081565b5f828281019061038391906119b7565b90505f5f90505b81518110156103c3576103b68282815181106103a9576103a86119fe565b5b6020026020010151610a05565b808060010191505061038a565b50505050565b60018160ff1610806103de575060038160ff16115b15610415576040517fe142361700000000000000000000000000000000000000000000000000000000815260040160405180910390fd5b61041e33610939565b15610455576040517ff9be60a200000000000000000000000000000000000000000000000000000000815260040160405180910390fd5b5f60055f8360ff1660ff1681526020019081526020015f205490506104de3360015f9054906101000a900473ffffffffffffffffffffffffffffffffffffffff16837f000000000000000000000000000000000000000000000000000000000000000073ffffffffffffffffffffffffffffffffffffffff16610ebb909392919063ffffffff16565b60405180606001604052808360ff1681526020016228de80426105019190611a58565b64ffffffffff1681526020016001151581525060025f3373ffffffffffffffffffffffffffffffffffffffff1673ffffffffffffffffffffffffffffffffffffffff1681526020019081526020015f205f820151815f015f6101000a81548160ff021916908360ff1602179055506020820151815f0160016101000a81548164ffffffffff021916908364ffffffffff1602179055506040820151815f0160066101000a81548160ff0219169083151502179055509050506105c233610f10565b3373ffffffffffffffffffffffffffffffffffffffff167f044f95a2d17727b5b87e4f23d70278b59a2b0b285289cc9021cac8cdba4797b7838360405161060a929190611a8b565b60405180910390a25050565b60015f9054906101000a900473ffffffffffffffffffffffffffffffffffffffff1681565b5f60605f60038054905067ffffffffffffffff81111561065e5761065d61187f565b5b60405190808252806020026020018201604052801561068c5781602001602082028036833780820191505090505b5090505f5f90505f5f90505b6003805490508110156107bb575f600382815481106106ba576106b96119fe565b5b905f5260205f20015f9054906101000a900473ffffffffffffffffffffffffffffffffffffffff16905062015180426106f39190611a58565b60025f8373ffffffffffffffffffffffffffffffffffffffff1673ffffffffffffffffffffffffffffffffffffffff1681526020019081526020015f205f0160019054906101000a900464ffffffffff1664ffffffffff16116107ad5780848481518110610764576107636119fe565b5b602002602001019073ffffffffffffffffffffffffffffffffffffffff16908173ffffffffffffffffffffffffffffffffffffffff168152505082806107a990611ab2565b9350505b508080600101915050610698565b505f8111156108bb57600193505f8167ffffffffffffffff8111156107e3576107e261187f565b5b6040519080825280602002602001820160405280156108115781602001602082028036833780820191505090505b5090505f5f90505b8281101561089657838181518110610834576108336119fe565b5b602002602001015182828151811061084f5761084e6119fe565b5b602002602001019073ffffffffffffffffffffffffffffffffffffffff16908173ffffffffffffffffffffffffffffffffffffffff16815250508080600101915050610819565b50806040516020016108a89190611bb0565b6040516020818303038152906040529350505b50509250929050565b6108cc61108e565b6108d55f611115565b565b600381815481106108e6575f80fd5b905f5260205f20015f915054906101000a900473ffffffffffffffffffffffffffffffffffffffff1681565b5f5f5f9054906101000a900473ffffffffffffffffffffffffffffffffffffffff16905090565b5f60025f8373ffffffffffffffffffffffffffffffffffffffff1673ffffffffffffffffffffffffffffffffffffffff1681526020019081526020015f205f0160069054906101000a900460ff1680156109e957504260025f8473ffffffffffffffffffffffffffffffffffffffff1673ffffffffffffffffffffffffffffffffffffffff1681526020019081526020015f205f0160019054906101000a900464ffffffffff1664ffffffffff16115b9050919050565b6005602052805f5260405f205f915090505481565b5f60025f8373ffffffffffffffffffffffffffffffffffffffff1673ffffffffffffffffffffffffffffffffffffffff1681526020019081526020015f209050805f0160069054906101000a900460ff16610a605750610d64565b6201518042610a6f9190611a58565b815f0160019054906101000a900464ffffffffff1664ffffffffff161115610a975750610d64565b5f60055f835f015f9054906101000a900460ff1660ff1660ff1681526020019081526020015f20549050807f000000000000000000000000000000000000000000000000000000000000000073ffffffffffffffffffffffffffffffffffffffff1663dd62ed3e85306040518363ffffffff1660e01b8152600401610b1d929190611bd0565b602060405180830381865afa158015610b38573d5f5f3e3d5ffd5b505050506040513d601f19601f82011682018060405250810190610b5c9190611c0b565b10158015610c015750807f000000000000000000000000000000000000000000000000000000000000000073ffffffffffffffffffffffffffffffffffffffff166370a08231856040518263ffffffff1660e01b8152600401610bbf91906116dd565b602060405180830381865afa158015610bda573d5f5f3e3d5ffd5b505050506040513d601f19601f82011682018060405250810190610bfe9190611c0b565b10155b15610cf957610c748360015f9054906101000a900473ffffffffffffffffffffffffffffffffffffffff16837f000000000000000000000000000000000000000000000000000000000000000073ffffffffffffffffffffffffffffffffffffffff16610ebb909392919063ffffffff16565b6228de8042610c839190611a58565b825f0160016101000a81548164ffffffffff021916908364ffffffffff1602179055508273ffffffffffffffffffffffffffffffffffffffff167f0e3bc79b6527253ae333c773455df588f62bcc1ad9726d42dbdc179356232a6082604051610cec919061149e565b60405180910390a2610d61565b5f825f0160066101000a81548160ff021916908315150217905550610d1d836111d6565b8273ffffffffffffffffffffffffffffffffffffffff167fdc31a00721d237ebb72d3bdb77406fe9cfd083c0ac80201a38c0eea61bfa60f760405160405180910390a25b50505b50565b6002602052805f5260405f205f91509050805f015f9054906101000a900460ff1690805f0160019054906101000a900464ffffffffff1690805f0160069054906101000a900460ff16905083565b610dbd61108e565b8060015f6101000a81548173ffffffffffffffffffffffffffffffffffffffff021916908373ffffffffffffffffffffffffffffffffffffffff1602179055507f7dae230f18360d76a040c81f050aa14eb9d6dc7901b20fc5d855e2a20fe814d181604051610e2c91906116dd565b60405180910390a150565b610e3f61108e565b5f73ffffffffffffffffffffffffffffffffffffffff168173ffffffffffffffffffffffffffffffffffffffff1603610eaf575f6040517f1e4fbdf7000000000000000000000000000000000000000000000000000000008152600401610ea691906116dd565b60405180910390fd5b610eb881611115565b50565b610ec984848484600161140e565b610f0a57836040517f5274afe7000000000000000000000000000000000000000000000000000000008152600401610f0191906116dd565b60405180910390fd5b50505050565b5f60045f8373ffffffffffffffffffffffffffffffffffffffff1673ffffffffffffffffffffffffffffffffffffffff1681526020019081526020015f2054148015610fd257505f6003805490501480610fd157508073ffffffffffffffffffffffffffffffffffffffff1660035f81548110610f9057610f8f6119fe565b5b905f5260205f20015f9054906101000a900473ffffffffffffffffffffffffffffffffffffffff1673ffffffffffffffffffffffffffffffffffffffff1614155b5b1561108b57600381908060018154018082558091505060019003905f5260205f20015f9091909190916101000a81548173ffffffffffffffffffffffffffffffffffffffff021916908373ffffffffffffffffffffffffffffffffffffffff16021790555060016003805490506110499190611c36565b60045f8373ffffffffffffffffffffffffffffffffffffffff1673ffffffffffffffffffffffffffffffffffffffff1681526020019081526020015f20819055505b50565b61109661147f565b73ffffffffffffffffffffffffffffffffffffffff166110b4610912565b73ffffffffffffffffffffffffffffffffffffffff1614611113576110d761147f565b6040517f118cdaa700000000000000000000000000000000000000000000000000000000815260040161110a91906116dd565b60405180910390fd5b565b5f5f5f9054906101000a900473ffffffffffffffffffffffffffffffffffffffff169050815f5f6101000a81548173ffffffffffffffffffffffffffffffffffffffff021916908373ffffffffffffffffffffffffffffffffffffffff1602179055508173ffffffffffffffffffffffffffffffffffffffff168173ffffffffffffffffffffffffffffffffffffffff167f8be0079c531659141344cd1fd0a4f28419497f9722a3daafe3b4186f6b6457e060405160405180910390a35050565b5f60045f8373ffffffffffffffffffffffffffffffffffffffff1673ffffffffffffffffffffffffffffffffffffffff1681526020019081526020015f205490505f60038054905011801561129157508173ffffffffffffffffffffffffffffffffffffffff1660038281548110611251576112506119fe565b5b905f5260205f20015f9054906101000a900473ffffffffffffffffffffffffffffffffffffffff1673ffffffffffffffffffffffffffffffffffffffff16145b1561140a575f600360016003805490506112ab9190611c36565b815481106112bc576112bb6119fe565b5b905f5260205f20015f9054906101000a900473ffffffffffffffffffffffffffffffffffffffff16905080600383815481106112fb576112fa6119fe565b5b905f5260205f20015f6101000a81548173ffffffffffffffffffffffffffffffffffffffff021916908373ffffffffffffffffffffffffffffffffffffffff1602179055508160045f8373ffffffffffffffffffffffffffffffffffffffff1673ffffffffffffffffffffffffffffffffffffffff1681526020019081526020015f2081905550600380548061139457611393611c69565b5b600190038181905f5260205f20015f6101000a81549073ffffffffffffffffffffffffffffffffffffffff021916905590555f60045f8573ffffffffffffffffffffffffffffffffffffffff1673ffffffffffffffffffffffffffffffffffffffff1681526020019081526020015f2081905550505b5050565b5f5f6323b872dd60e01b9050604051815f525f1960601c87166004525f1960601c86166024528460445260205f60645f5f8c5af1925060015f5114831661146c578383151615611460573d5f823e3d81fd5b5f883b113d1516831692505b806040525f606052505095945050505050565b5f33905090565b5f819050919050565b61149881611486565b82525050565b5f6020820190506114b15f83018461148f565b92915050565b5f604051905090565b5f5ffd5b5f5ffd5b5f73ffffffffffffffffffffffffffffffffffffffff82169050919050565b5f6114f1826114c8565b9050919050565b611501816114e7565b811461150b575f5ffd5b50565b5f8135905061151c816114f8565b92915050565b5f60208284031215611537576115366114c0565b5b5f6115448482850161150e565b91505092915050565b5f819050919050565b5f61157061156b611566846114c8565b61154d565b6114c8565b9050919050565b5f61158182611556565b9050919050565b5f61159282611577565b9050919050565b6115a281611588565b82525050565b5f6020820190506115bb5f830184611599565b92915050565b5f5ffd5b5f5ffd5b5f5ffd5b5f5f83601f8401126115e2576115e16115c1565b5b8235905067ffffffffffffffff8111156115ff576115fe6115c5565b5b60208301915083600182028301111561161b5761161a6115c9565b5b9250929050565b5f5f60208385031215611638576116376114c0565b5b5f83013567ffffffffffffffff811115611655576116546114c4565b5b611661858286016115cd565b92509250509250929050565b5f60ff82169050919050565b6116828161166d565b811461168c575f5ffd5b50565b5f8135905061169d81611679565b92915050565b5f602082840312156116b8576116b76114c0565b5b5f6116c58482850161168f565b91505092915050565b6116d7816114e7565b82525050565b5f6020820190506116f05f8301846116ce565b92915050565b5f8115159050919050565b61170a816116f6565b82525050565b5f81519050919050565b5f82825260208201905092915050565b8281835e5f83830152505050565b5f601f19601f8301169050919050565b5f61175282611710565b61175c818561171a565b935061176c81856020860161172a565b61177581611738565b840191505092915050565b5f6040820190506117935f830185611701565b81810360208301526117a58184611748565b90509392505050565b6117b781611486565b81146117c1575f5ffd5b50565b5f813590506117d2816117ae565b92915050565b5f602082840312156117ed576117ec6114c0565b5b5f6117fa848285016117c4565b91505092915050565b5f6020820190506118165f830184611701565b92915050565b6118258161166d565b82525050565b5f64ffffffffff82169050919050565b6118448161182b565b82525050565b5f60608201905061185d5f83018661181c565b61186a602083018561183b565b6118776040830184611701565b949350505050565b7f4e487b71000000000000000000000000000000000000000000000000000000005f52604160045260245ffd5b6118b582611738565b810181811067ffffffffffffffff821117156118d4576118d361187f565b5b80604052505050565b5f6118e66114b7565b90506118f282826118ac565b919050565b5f67ffffffffffffffff8211156119115761191061187f565b5b602082029050602081019050919050565b5f61193461192f846118f7565b6118dd565b90508083825260208201905060208402830185811115611957576119566115c9565b5b835b81811015611980578061196c888261150e565b845260208401935050602081019050611959565b5050509392505050565b5f82601f83011261199e5761199d6115c1565b5b81356119ae848260208601611922565b91505092915050565b5f602082840312156119cc576119cb6114c0565b5b5f82013567ffffffffffffffff8111156119e9576119e86114c4565b5b6119f58482850161198a565b91505092915050565b7f4e487b71000000000000000000000000000000000000000000000000000000005f52603260045260245ffd5b7f4e487b71000000000000000000000000000000000000000000000000000000005f52601160045260245ffd5b5f611a6282611486565b9150611a6d83611486565b9250828201905080821115611a8557611a84611a2b565b5b92915050565b5f604082019050611a9e5f83018561181c565b611aab602083018461148f565b9392505050565b5f611abc82611486565b91507fffffffffffffffffffffffffffffffffffffffffffffffffffffffffffffffff8203611aee57611aed611a2b565b5b600182019050919050565b5f81519050919050565b5f82825260208201905092915050565b5f819050602082019050919050565b611b2b816114e7565b82525050565b5f611b3c8383611b22565b60208301905092915050565b5f602082019050919050565b5f611b5e82611af9565b611b688185611b03565b9350611b7383611b13565b805f5b83811015611ba3578151611b8a8882611b31565b9750611b9583611b48565b925050600181019050611b76565b5085935050505092915050565b5f6020820190508181035f830152611bc88184611b54565b905092915050565b5f604082019050611be35f8301856116ce565b611bf060208301846116ce565b9392505050565b5f81519050611c05816117ae565b92915050565b5f60208284031215611c2057611c1f6114c0565b5b5f611c2d84828501611bf7565b91505092915050565b5f611c4082611486565b9150611c4b83611486565b9250828203905081811115611c6357611c62611a2b565b5b92915050565b7f4e487b71000000000000000000000000000000000000000000000000000000005f52603160045260245ffdfea26469706673582212208d9f74fcffe2074a36927b7d1bd559974460fe386abfe1f2532158674ae5f81064736f6c63430008210033","linkReferences":{}},"methodIdentifiers":{"SECONDS_PER_MONTH()":"10786deb","activeUserIndex(address)":"1a29bb54","activeUsers(uint256)":"803ae518","checkUpkeep(bytes)":"6e04ff0d","isActive(address)":"9f8a13d7","owner()":"8da5cb5b","performUpkeep(bytes)":"4585e33b","renewSubscription(address)":"e02eb109","renounceOwnership()":"715018a6","setTreasury(address)":"f0f44260","subscribe(uint8)":"49c7e639","subscriptions(address)":"f046395a","tierPrices(uint8)":"b4fad6f8","transferOwnership(address)":"f2fde38b","treasury()":"61d027b3","usdc()":"3e413bee"},"id":34}